:020000040800F2
:10000000000002207DDE0008A9150008AB150008DD
:10001000AD150008AF150008B1150008000000007C
:10002000000000000000000000000000B315000800
:10003000B515000800000000B7150008B915000844
:10004000CDDE0008CDDE0008CDDE0008CDDE0008E4
:10005000CDDE0008CDDE0008CDDE0008CDDE0008D4
:10006000CDDE0008CDDE0008CDDE0008CDDE0008C4
:10007000CDDE0008CDDE0008CDDE0008CDDE0008B4
:10008000CDDE0008CDDE0008CDDE0008CDDE0008A4
:10009000CDDE0008CDDE0008CDDE0008CDDE000894
:1000A000CDDE0008CDDE0008CDDE0008CDDE000884
:1000B000CDDE0008CDDE0008CDDE0008CDDE000874
:1000C000CDDE0008CDDE0008CDDE0008CDDE000864
:1000D000CDDE0008CDDE0008CDDE0008CDDE000854
:1000E000CDDE0008CDDE0008CDDE0008CDDE000844
:1000F000CDDE0008CDDE0008CDDE0008CDDE000834
:10010000CDDE0008CDDE0008CDDE0008CDDE000823
:10011000CDDE0008CDDE0008BD150008CDDE0008EC
:10012000CDDE0008CDDE0008CDDE0008CDDE000803
:10013000CDDE0008CDDE0008CDDE0008CDDE0008F3
:10014000CDDE0008CDDE0008CDDE0008C9150008B0
:10015000CDDE0008CDDE0008CDDE0008CDDE0008D3
:10016000CDDE0008CDDE0008CDDE0008CDDE0008C3
:10017000CDDE0008CDDE0008CDDE00080000000066
:08018000CDDE0008CDDE000811
:1001900010B5054C237833B9044B13B10448AFF3C1
:1001A00000800123237010BD5007002000000000D4
:1001B000D419010808B5034B1BB103490348AFF339
:1001C000008008BD0000000054070020D419010879
:1001D00010F8012B11F8013B012A28BF9A42F7D0F1
:1001E000D01A7047034613F8012B002AFBD1181AC6
:1001F000013870470000000000000000000000000F
:1002000001F0FF01102A2BDB10F0070F08D010F8C7
:10021000013B013A8B422DD010F0070F42B3F6D1CB
:10022000F0B441EA012141EA014122F007047FF0E4
:1002300000070023F0E80256083C85EA010586EA3B
:10024000010685FA47F5A3FA87F586FA47F6A5FA77
:1002500087F68EB9EED1F0BC01F0FF0102F0070283
:1002600032B110F8013B013A83EA010313B1F8D12E
:100270000020704701387047002D06BF354603380F
:10028000073815F0010F07D1013015F4807F02BF48
:10029000013015F4C03F0130F0BC0138704700BF99
:1002A00081F0004102E000BF83F0004330B54FEA27
:1002B00041044FEA430594EA050F08BF90EA020F94
:1002C0001FBF54EA000C55EA020C7FEA645C7FEA27
:1002D000655C00F0E2804FEA5454D4EB5555B8BF4A
:1002E0006D420CDD2C4480EA020281EA030382EABB
:1002F000000083EA010180EA020281EA0303362D4D
:1003000088BF30BD11F0004F4FEA01314FF4801C1F
:100310004CEA113102D0404261EB410113F0004F31
:100320004FEA03334CEA133302D0524263EB4303E8
:1003300094EA050F00F0A780A4F10104D5F1200E86
:100340000DDB02FA0EFC22FA05F2801841F10001E1
:1003500003FA0EF2801843FA05F359410EE0A5F1B5
:1003600020050EF1200E012A03FA0EFC28BF4CF0E6
:10037000020C43FA05F3C01851EBE37101F000459C
:1003800007D54FF0000EDCF1000C7EEB00006EEBA9
:100390000101B1F5801F1BD3B1F5001F0CD3490833
:1003A0005FEA30004FEA3C0C04F101044FEA44528A
:1003B00012F5800F80F09A80BCF1004F08BF5FEA11
:1003C000500C50F1000041EB045141EA050130BDF1
:1003D0005FEA4C0C404141EB010111F4801FA4F194
:1003E0000104E9D191F0000F04BF01460020B1FAE9
:1003F00081F308BF2033A3F10B03B3F120020CDA21
:100400000C3208DD02F1140CC2F10C0201FA0CF0FE
:1004100021FA02F10CE002F11402D8BFC2F1200C63
:1004200001FA02F120FA0CFCDCBF41EA0C01904019
:10043000E41AA2BF01EB0451294330BD6FEA040462
:100440001F3C1CDA0C340EDC04F11404C4F120024D
:1004500020FA04F001FA02F340EA030021FA04F35F
:1004600045EA030130BDC4F10C04C4F1200220FAB6
:1004700002F001FA04F340EA0300294630BD21FAF4
:1004800004F0294630BD94F0000F83F4801306BFBA
:1004900081F480110134013D4EE77FEA645C18BFAE
:1004A0007FEA655C29D094EA050F08BF90EA020F45
:1004B00005D054EA000C04BF1946104630BD91EA3D
:1004C000030F1EBF0021002030BD5FEA545C05D140
:1004D0004000494128BF41F0004130BD14F580047F
:1004E0003CBF01F5801130BD01F0004545F0FE41F3
:1004F00041F470014FF0000030BD7FEA645C1ABF28
:10050000194610467FEA655C1CBF0B46024650EA5E
:10051000013406BF52EA033591EA030F41F400218A
:1005200030BD00BF90F0000F04BF0021704730B510
:100530004FF4806404F132044FF000054FF00001E5
:1005400050E700BF90F0000F04BF0021704730B5A6
:100550004FF4806404F1320410F0004548BF40427B
:100560004FF000013EE700BF42004FEAE2014FEAD0
:1005700031014FEA02701FBF12F07F4393F07F4FAB
:1005800081F06051704792F0000F14BF93F07F4FDD
:10059000704730B54FF4607401F0004521F0004120
:1005A00020E700BF50EA010208BF704730B54FF0A6
:1005B00000050AE050EA010208BF704730B511F0AB
:1005C000004502D5404261EB41014FF4806404F1E3
:1005D00032045FEA915C3FF4DCAE4FF003025FEA65
:1005E000DC0C18BF03325FEADC0C18BF033202EBED
:1005F000DC02C2F1200300FA03FC20FA02F001FA47
:1006000003FE40EA0E0021FA02F11444C1E600BFE5
:1006100070B54FF0FF0C4CF4E06C1CEA11541DBF98
:100620001CEA135594EA0C0F95EA0C0F00F0DEF863
:100630002C4481EA030621EA4C5123EA4C5350EA48
:10064000013518BF52EA033541F4801143F4801399
:1006500038D0A0FB02CE4FF00005E1FB02E506F02A
:100660000042E0FB03E54FF00006E1FB03569CF07F
:10067000000F18BF4EF0010EA4F1FF04B6F5007F85
:1006800064F5407404D25FEA4E0E6D4146EB0606F7
:1006900042EAC62141EA55514FEAC52040EA5E5080
:1006A0004FEACE2EB4F1FD0C88BFBCF5E06F1ED82A
:1006B000BEF1004F08BF5FEA500E50F1000041EB61
:1006C000045170BD06F0004646EA010140EA02000E
:1006D00081EA0301B4EB5C04C2BFD4EB0C0541EA30
:1006E000045170BD41F480114FF0000E013C00F345
:1006F000AB8014F1360FDEBF002001F0004170BD69
:10070000C4F10004203C35DA0C341BDC04F1140481
:10071000C4F1200500FA05F320FA04F001FA05F20D
:1007200040EA020001F0004221F0004110EBD370DA
:1007300021FA04F642EB06015EEA430E08BF20EA06
:10074000D37070BDC4F10C04C4F1200500FA04F3A9
:1007500020FA05F001FA04F240EA020001F000413B
:1007600010EBD37041F100015EEA430E08BF20EAAE
:10077000D37070BDC4F1200500FA05F24EEA020EF6
:1007800020FA04F301FA05F243EA020321FA04F025
:1007900001F0004121FA04F220EA020000EBD370DC
:1007A0005EEA430E08BF20EAD37070BD94F0000FDC
:1007B0000FD101F00046400041EB010111F4801F10
:1007C00008BF013CF7D041EA060195F0000F18BFC1
:1007D000704703F00046520043EB030313F4801FFD
:1007E00008BF013DF7D043EA0603704794EA0C0FB7
:1007F0000CEA135518BF95EA0C0F0CD050EA4106CD
:1008000018BF52EA4306D1D181EA030101F0004149
:100810004FF0000070BD50EA410606BF1046194671
:1008200052EA430619D094EA0C0F02D150EA01367D
:1008300013D195EA0C0F05D152EA03361CBF1046BE
:1008400019460AD181EA030101F0004141F0FE415D
:1008500041F470014FF0000070BD41F0FE4141F4E1
:10086000780170BD70B54FF0FF0C4CF4E06C1CEAE1
:1008700011541DBF1CEA135594EA0C0F95EA0C0F96
:1008800000F0A7F8A4EB050481EA030E52EA033551
:100890004FEA013100F088804FEA03334FF0805572
:1008A00045EA131343EA12634FEA022245EA11159F
:1008B00045EA10654FEA00260EF000419D4208BF50
:1008C000964244F1FD0404F5407402D25B084FEAFD
:1008D0003202B61A65EB03055B084FEA32024FF4A9
:1008E00080104FF4002CB6EB020E75EB030E22BF06
:1008F000B61A754640EA0C005B084FEA3202B6EBC6
:10090000020E75EB030E22BFB61A754640EA5C0074
:100910005B084FEA3202B6EB020E75EB030E22BF04
:10092000B61A754640EA9C005B084FEA3202B6EB05
:10093000020E75EB030E22BFB61A754640EADC00C4
:1009400055EA060E18D04FEA051545EA16754FEA26
:1009500006164FEAC30343EA52734FEAC2025FEA44
:100960001C1CC0D111F4801F0BD141EA00014FF0D3
:1009700000004FF0004CB6E711F4801F04BF0143A4
:100980000020B4F1FD0C88BFBCF5E06F3FF6AFAEC0
:10099000B5EB030C04BFB6EB020C5FEA500C50F150
:1009A000000041EB045170BD0EF0004E4EEA1131D3
:1009B00014EB5C04C2BFD4EB0C0541EA045170BDDA
:1009C00041F480114FF0000E013C90E645EA060E1E
:1009D0008DE60CEA135594EA0C0F08BF95EA0C0F4C
:1009E0003FF43BAF94EA0C0F0AD150EA01347FF494
:1009F00034AF95EA0C0F7FF425AF104619462CE76B
:100A000095EA0C0F06D152EA03353FF4FDAE1046CD
:100A1000194622E750EA410618BF52EA43067FF41E
:100A2000C5AE50EA41047FF40DAF52EA43057FF4AE
:100A3000EBAE12E74FF0FF3C06E000BF4FF0010CB9
:100A400002E000BF4FF0010C4DF804CD4FEA410C1D
:100A50007FEA6C5C4FEA430C18BF7FEA6C5C1BD0EA
:100A600001B050EA410C0CBF52EA430C91EA030F6B
:100A700002BF90EA020F0020704710F1000F91EAC8
:100A8000030F58BF994208BF90422CBFD8176FEA96
:100A9000E37040F0010070474FEA410C7FEA6C5C64
:100AA00002D150EA013C07D14FEA430C7FEA6C5C6B
:100AB000D6D152EA033CD3D05DF8040B704700BF97
:100AC0008446104662468C461946634600E000BFE5
:100AD00001B5FFF7B7FF002848BF10F1000F01BDB7
:100AE0004DF808EDFFF7F4FF0CBF012000205DF882
:100AF00008FB00BF4DF808EDFFF7EAFF34BF012007
:100B000000205DF808FB00BF4DF808EDFFF7E0FF9F
:100B100094BF012000205DF808FB00BF4DF808EDF0
:100B2000FFF7CEFF94BF012000205DF808FB00BF57
:100B30004DF808EDFFF7C4FF34BF012000205DF839
:100B400008FB00BF4FEA410C7FEA6C5C02D150EA1F
:100B5000013C0AD14FEA430C7FEA6C5C02D152EAB5
:100B6000033C02D14FF0000070474FF00100704786
:100B70004FEA410212F5001215D211D56FF47873C5
:100B8000B3EB625212D94FEAC12343F0004343EA68
:100B9000505311F0004F23FA02F018BF4042704743
:100BA0004FF00000704750EA013005D111F00040CD
:100BB00008BF6FF0004070474FF00000704700BF63
:100BC00053B94AB9002908BF00281CBF4FF0FF31B4
:100BD0004FF0FF3000F07AB9ADF1080C6DE904CEAA
:100BE00000F006F8DDF804E0DDE9022304B0704708
:100BF0002DE9F0478C460D460446089E002B51D146
:100C00008A4217466DD9B2FA82FEBEF1000F0BD0B0
:100C1000CEF1200C01FA0EF520FA0CFC02FA0EF7C8
:100C20004CEA050C00FA0EF44FEA174A250CBCFBFF
:100C3000FAF81FFA87F90AFB18CC45EA0C4508FBBD
:100C400009F3AB420AD9ED1908F1FF3280F0238194
:100C5000AB4240F22081A8F102083D44ED1AA4B253
:100C6000B5FBFAF00AFB105544EA054400FB09F90C
:100C7000A14509D9E41900F1FF3380F00A81A145AB
:100C800040F2078102383C44A4EB090440EA0840E2
:100C90000021002E61D024FA0EF40023346073602A
:100CA000BDE8F0878B4207D9002E54D0002186E89A
:100CB00021000846BDE8F087B3FA83F1002940F02F
:100CC0008E80AB4202D3824200F2FA80841A65EB36
:100CD00003050120AC46002E3FD086E81010BDE889
:100CE000F08712B90127B7FBF2F7B7FA87FEBEF11A
:100CF000000F34D1EB1B3A0C1FFA87FC0121B3FB28
:100D0000F2F8250C02FB183345EA03450CFB08F307
:100D1000AB4207D9ED1908F1FF3002D2AB4200F225
:100D2000D1808046ED1AA3B2B5FBF2F002FB10555C
:100D300043EA05440CFB00FCA44507D9E41900F183
:100D4000FF3302D2A44500F2B8801846A4EB0C048D
:100D500040EA08409DE731463046BDE8F087CEF1D5
:100D6000200405FA0EF307FA0EF720FA04F83A0CFD
:100D700025FA04F448EA0308B4FBF2F14FEA1845F7
:100D800002FB11441FFA87FC45EA044501FB0CF302
:100D9000AB4200FA0EF409D9ED1901F1FF3080F0F1
:100DA0008A80AB4240F2878002393D44EB1A1FFA39
:100DB00088F5B3FBF2F002FB103345EA034500FB74
:100DC0000CF3AB4207D9ED1900F1FF386FD2AB42FB
:100DD0006DD902383D44EB1A40EA01418FE7C1F179
:100DE000200722FA07F88B4005FA01F448EA0303CA
:100DF00020FA07FE4FEA134CFD404EEA040EB5FB05
:100E0000FCF94FEA1E440CFB19551FFA83F844EA1B
:100E1000054509FB08F4AC4202FA01F200FA01FAB6
:100E200008D9ED1809F1FF3043D2AC4241D9A9F1FC
:100E300002091D442D1B1FFA8EFEB5FBFCF00CFBB6
:100E400010554EEA054400FB08F8A04507D9E41800
:100E500000F1FF3529D2A04527D902381C4440EAC9
:100E60000940A4EB0804A0FB02894C45C6464D4648
:100E700015D312D056B1BAEB0E0364EB050404FA95
:100E800007F7CB401F43CC40376074600021BDE8BA
:100E9000F0871846F8E69046E0E6C245EAD2B8EB9D
:100EA000020E69EB03050138E4E72846D7E7404620
:100EB00091E78146BEE7014678E702383C4445E7C2
:100EC000084608E7A8F102083D442BE7704700BF39
:100ED00070B5302298B00DEB020000210DF04BFAF6
:100EE0001422002107A80DF046FA0021102203A8C1
:100EF0000DF041FA0025214B01951A6C42F0805209
:100F00001A641B6C03F080530193019B1C4B0295E8
:100F10001A6842F480421A601B6803F4804302930B
:100F2000029B4FF480330D934FF4800313930823F7
:100F300014934FF4A8730224012615930CA80723D9
:100F400017930C961294169401F056FC0F230793F6
:100F50004FF4A0530A9305214FF4805307A80B9335
:100F60000894099501F0F8FDC02303A803960493A3
:100F7000059401F0C9FE18B070BD00BF00380240F2
:100F80000070004080B590B000F08CFBFFF7A0FF30
:100F90001422002106A800240DF0EDF9A14B0094C5
:100FA0001A6BA148A14F42F010021A631A6B02F0AB
:100FB00010020092009A01941A6B42F004021A6324
:100FC0001A6B02F004020192019A02941A6B42F029
:100FD00080021A631A6B02F080020292029A039452
:100FE0001A6B42F001021A631A6B02F001020392BB
:100FF000039A04941A6B42F002021A631A6B02F00D
:1010000002020492049A05941A6B42F008021A63D1
:101010001B6B03F00803224605930821059B00F093
:10102000B5FC01221121824800F0B0FC01224FF4EE
:10103000E041804800F0AAFC22464FF2FF017E48C2
:1010400000F0A4FC0125082606A977480696089416
:101050000994079500F0BAFB112306A9744806937A
:10106000089409944FF00508079500F0AFFB069629
:1010700006A902266E48079608940994CDF82880A0
:1010800000F0A4FB06A96D4807970894069500F0A8
:101090009DFB202306A9664806930794089500F057
:1010A00095FB042306A9634806930794089400F06F
:1010B0008DFB4FF4806306A95E480693079608945B
:1010C0000994CDF8288000F081FB4FF4E04306A995
:1010D0005848069308940994079500F077FB4FF25F
:1010E000FF0306A95448069308940994079500F055
:1010F0006DFB06A94C4806960797089400F066FB1E
:101100004F4A5048504B84604FF4804780E80C00B1
:10111000C46044618461C4610462076101F090F8B5
:101120004A484B4B84604FF4007680E84800494BB6
:10113000C460066143618461C461046201F024F902
:101140004548464984604FF4827380E80A000A23C8
:10115000C460046144618661C46104624462846263
:10116000C36201F097FE3E483E4B84604FF4E13687
:1011700080E848000C26C46004618461C461466153
:1011800002F018F93848394B84604FF4165EC46099
:1011900004618461C461364C466180E8084002F015
:1011A00009F903F0B7FC3946234800F0F4FB03F0DB
:1011B00055FE304A30494FF4FA5320460AF0BFFB3F
:1011C00005F08AF906A80AF0A1FB4FF44873ADF8C0
:1011D000183007944FF4F073284CADF81A3006A875
:1011E000274B09930AF0BAFB20460AF07DFC254BF9
:1011F0006360204625700AF089FC234B0E4C186072
:101200004FF400410C4800F0C6FB03F003FB03F071
:10121000A1FC0BF0F1F94FF48051204600F0BBFB2C
:10122000F5E700BF00380240001002400000121035
:101230000008024000040240000C0240000002408E
:10124000005400408C4F0120A08601007C500120FA
:10125000003C004000770100E44F012000300140D5
:101260003C500120004400404C4F01200048004009
:101270006C0101206C8400206C070020304F01209D
:101280005151000865520008E04F012038B502684E
:10129000074CA242054601D100F01EFA2B68A3427A
:1012A00004D10120BDE838400AF08CBC38BD00BF35
:1012B000001000407047000007B50E4B0021009160
:1012C0005A6C42F480425A645A6C02F48042009292
:1012D000009A01911A6C42F080521A641B6C03F060
:1012E000805301930720019B00F01CFA03B05DF8C6
:1012F00004FB00BF0038024030B5044689B0142218
:10130000002103A80DF037F82268144B9A4222D12D
:10131000134C144800250195236B43F0020323630B
:10132000236B03F002030193019B4FF410730393AB
:10133000122304930123059303A90423079300F0C8
:1013400045FA0295236C43F400132364236C03F4E1
:1013500000130293029B09B030BD00BF005400404F
:10136000003802400004024070B5044688B01422E0
:10137000002103A80CF0FFFF22681D4B9A4235D1D3
:1013800003F5FE33002400941A6C1A4842F400421C
:101390001A641A6C02F400420092009A01941A6BCB
:1013A00042F001021A631A6B02F001020192019AE3
:1013B00002941A6B42F004021A631B6B03F00403DD
:1013C0000293029B02261023062503A90393049689
:1013D000079500F0FBF94FF4A45303A906480393C3
:1013E000049605940694079500F0F0F908B070BDD6
:1013F000003C0040000002400008024010B50446D6
:1014000088B01422002103A80CF0B5FF2268134B0A
:101410009A4220D103F58433002101915A6C10487F
:1014200042F480525A645A6C02F480520192019A3A
:1014300002911A6B42F001021A631B6B03F0010365
:101440000293029BE02303930223049303A9052341
:10145000079300F0BBF908B010BD00BF0030014099
:101460000000024010B514228AB0044600210DEBA2
:1014700002000CF080FF2368274A934225D1274BB6
:101480002748002101911A6C42F400321A641A6C48
:1014900002F400320192019A02911A6B42F00102A9
:1014A0001A631B6B03F001030293029B0C23059349
:1014B0000223069301230793032308930723099329
:1014C00005A900F083F90AB010BD164A9342FAD17B
:1014D000124B1548002103911A6C42F480221A64C1
:1014E0001A6C02F480220392039A04911A6B42F060
:1014F00008021A631B6B03F008030493049B4FF468
:101500004073059302230693012307930323089353
:101510000723099305A9D4E700440040003802409E
:101520000000024000480040000C024030B5014677
:1015300089B00022362000F007F9362000F038F993
:101540000025154B02951A6C144C42F010021A64D7
:101550001B6C03F01003029301A903A8029B01F086
:10156000B5FB01F093FB0E4B236040F2E733E360E1
:1015700040000C4BB0FBF3F0013860602046256161
:10158000A56001F0E1FD20B9204601F0C1FC09B0E1
:1015900030BD0120FBE700BF00380240C4500120ED
:1015A0000010004040420F007047FEE7FEE7FEE7F4
:1015B000FEE770477047704770470000014801F030
:1015C000BBBC00BFC4500120014800F0E1BA00BF1D
:1015D000D454012070B50E4615460C46A31B9D42FF
:1015E00001DC284670BDAFF3008004F8010BF5E77D
:1015F00070B50E4615460C46A31B9D4201DC2846DD
:1016000070BD14F8010BAFF30080F5E708B50A4B85
:101610001968024609B909491960186869460244FF
:101620008A4206D90CF054FC0C2303604FF0FF30C3
:1016300008BD1A6008BD00BF88010120385C012088
:101640004FF0FF3070474FF400534B60002070475D
:1016500001207047002070470F49D1F8883043F4CB
:101660007003C1F888300D4B1A68002042F0010267
:101670001A6098601A6822F0847222F480321A602C
:10168000074A5A601A6822F480221A60D8604FF024
:1016900000638B60704700BF00ED00E0003802403F
:1016A0001030002408B50B4B1A6842F400721A601F
:1016B0001A6842F480621A601A6842F480721A60F2
:1016C000032000F02FF80020FFF730FFFFF7F4FDB4
:1016D000002008BD003C0240034A044B11681B78FF
:1016E0000B441360704700BF045101200400002028
:1016F000014B1868704700BF0451012038B50446FB
:10170000FFF7F6FF631C1CBF054B1B78054618BF8F
:10171000E418FFF7EDFF401B8442FAD838BD00BF44
:1017200004000020074AD36823F4E0631B041B0C69
:1017300043F0BF63000243F4003300F4E06003436E
:10174000D360704700ED00E0174B30B5DC68C4F3A0
:101750000224C4F10703251D042B28BF0423062DF2
:101760004FF0010505FA03F303F1FF338CBF033C8F
:1017700000241940A14005FA04F4013C224000284D
:1017800042EA01024FEA0212ADBF00F1604000F0F0
:101790000F00064B00F56140B5BFD2B2D2B21A5469
:1017A00080F8002330BD00BF00ED00E014ED00E044
:1017B000002808DB4209012300F01F0003FA00F0B3
:1017C000014B43F82200704700E100E02DE9F04FA3
:1017D00085B00B68DFF8AC81684ADFF8AC91019303
:1017E00000234FF0010E019C0EFA03FE0EEA0406E0
:1017F000B64540F0AE804C6824F01007022F16D199
:101800004FEAD30A00EB8A0A03F0070BDAF82050FC
:101810004FEA8B0B4FF00F0C0CFA0BFC25EA0C0C6B
:101820000D6905FA0BF545EA0C05CAF820504FEA98
:10183000430A0325D0F800B005FA0AF5ED4304F099
:10184000030C0BEA050B0CFA0AFC013F4CEA0B0CEB
:10185000012FC0F800C011D8876807EA050BCF68D0
:1018600007FA0AFC4CEA0B078760476827EA0E0E66
:10187000C4F300179F4047EA0E074760C7683D4022
:101880008F6807FA0AF73D43C560E50061D54FF060
:10189000000BCDF80CB0D8F84470394D47F48047B0
:1018A000C8F84470D8F8447007F480470397039F42
:1018B00023F0030707F1804707F59C3703F0030C7B
:1018C000D7F808A04FEA8C0C4FF00F0E0EFA0CFE62
:1018D000A8422AEA0E0E43D005F58065A84241D001
:1018E00005F58065A8423FD005F58065A8423DD04A
:1018F00005F58065A8423BD048453BD005F500651D
:10190000A84239D005F58065A84214BF08250725EF
:1019100005FA0CF545EA0E05BD601568F74314F4A9
:10192000803F0CBF3D4035431560556814F4003FBF
:101930000CBF3D4035435560956814F4801F0CBFC3
:101940003D4035439560D568A40254BF3D403543C2
:10195000D5600133102B7FF444AF05B0BDE8F08FA4
:101960005D46D5E70125D3E70225D1E70325CFE77B
:101970000425CDE70525CBE70625C9E7003C014056
:101980000000024000380240001402400AB18161A8
:1019900070470904FBE7436931EA030308BF090400
:1019A000816170472DE9FF47044690F8B8029DF821
:1019B00030709DF834E0BDF838C0012828D02820C8
:1019C00000FB01400125002612F0800F84F8B85278
:1019D00002F07F0908BF354680F83D6080F8383056
:1019E00080F8391080F83FE080F83A9080F83B505A
:1019F00080F83C70A0F840C0CDF808C08DE8804069
:101A0000206801F0A7FE84F8B86204B0BDE8F08752
:101A10000220FAE790F8B832012B10B5044609D03D
:101A2000012380F8B832006801F01EFF002084F81E
:101A3000B80210BD022010BD2DE9F04107468AB062
:101A4000002841D090F8B932046803F0FF021BB9B6
:101A500080F8B82203F084F8032387F8B932E36BE7
:101A60003C4613F4807354F8100B08BF3B6101F03F
:101A70002DFD0FCC6D460FC50FCC0FC594E80300AC
:101A800085E8030007F104083E4698E80E00386830
:101A900001F0D6FC56F8100B012101F01DFD0FCE10
:101AA0006D460FC50FCE0FC594E8030085E803000F
:101AB00098E80E00386801F0CDFD012387F8B932AF
:101AC00000200AB0BDE8F0810120FAE7F0B5282433
:101AD00004FB01049DF81470069EBDF81C5084F8A8
:101AE0003B2084F83F306FB90327022B84F8427003
:101AF0002BD0BB4229D0012B31D1282303FB01037A
:101B000000222AE04FF0020E84F842E0032B26D890
:101B100001A454F823F000BF291B0008FB1A000899
:101B20004B1B00084B1B0008012F18D1BAB925B96F
:101B3000282303FB010383F85170282303FB0103CF
:101B400093F851204AB1022207E0282303FB010346
:101B5000D2B993F85140002CF5D183F842202824C3
:101B600004FB0103002283F8391019465E649D646A
:101B700083F85C20DA6483F85D203831027C0068E9
:101B8000BDE8F04001F0D4BE93F85020DAE700BF82
:101B90002DE9F04F066887B00446304601F0FCFCA2
:101BA000012840F0B480206801F0F2FC002800F029
:101BB000AE80206801F0ECFC870248BF23682068F3
:101BC00044BF4FF400125A6101F0E2FCC50248BF65
:101BD0002368206844BF4FF480125A6101F0D8FC9A
:101BE000400148BF2368206844BF4FF080625A61BB
:101BF00001F0CEFC810748BF2368206844BF022261
:101C00005A6101F0C5FC820010D5D6F8403423F0AB
:101C10002E03C6F84034204602F0F2FF012120686E
:101C200001F0BEFC23684FF000525A61206801F0B9
:101C3000AFFCC30142D52568D5F840340493D5F8EC
:101C400040340593059B23F02E030593049B9F07C7
:101C50000DD5049BD80706D5AB6923F00053AB61C3
:101C6000204602F0C9FF059B43F002030593049B45
:101C7000190719D5059B43F008030593049B5A07E0
:101C800050D5A169022945D1049B206803F4C023E3
:101C9000B3F5802F18BF012101F082FC204602F02D
:101CA000B4FF204602F0A8FF049B9B0642BF059BA1
:101CB00043F020030593059BC5F84034206801F0EC
:101CC00067FC070705D5204602F092FF236808222B
:101CD0005A61206801F05CFC850112D5206801F092
:101CE000BEFD4FF0000A019006F5A06828274FF0CE
:101CF0000209D346A3689A4523D323684FF00072A4
:101D00005A61206801F044FCC30600F1208207B04C
:101D1000BDE8F08FE368012B04BF4EF66022C5F8E2
:101D20000424BBE7204602F074FFD5F84034226853
:101D300023F02E03C5F84034936943F000539361B8
:101D4000B2E7019A0AF00F0322FA03F3D80740F131
:101D50008A80D8F80030206813F4004F5FFA8AF5C3
:101D600000F004816A0100F5A063D618B168490744
:101D700013D50421B160F16841F00201F160B1684E
:101D8000890542D5F368206843F00203F3602946D1
:101D900001F06AFD4FF40073C7E0B168890602D50F
:101DA0002021B160EBE7B168090715D5F16803930D
:101DB00041F00201F16007FB05414FF0050E81F88B
:101DC0005DE01021B1600821B1602946029201F066
:101DD0004BFD029A039BD2E7B1684905CFD5F16864
:101DE000039341F00201F1602946029201F03CFDAB
:101DF0001021B16007FB0541082081F85D004FF418
:101E00008061B160039B029AB9E7B168C8073DD50C
:101E1000216949B107FB054E3069DEF84810C0F36F
:101E20001200091ACEF84C1007FB054E01208EF85F
:101E30005D00CEF858B0B0609EF83F1011F0FD0F75
:101E400016D1F368206843F00203F360294601F0DD
:101E50000BFD1023B36007FB054595F8503083F068
:101E6000010385F850300AF1010A08F1200841E722
:101E70000329F0D1D15841F00051D1508EF85C00C7
:101E800002462946204602F0BFFEE4E7B168890712
:101E900036D5F16807FB054021F00201F16090F8AA
:101EA0005D1001290CD180F85C1007FB0543C6F8D2
:101EB000089093F85C202946204602F0A5FED2E760
:101EC0000529F0D0062901D0082914D107FB0541C6
:101ED000886D01300328886583BF0420C1F858B09D
:101EE00081F85C0081F85C90D15821F0804141F08C
:101EF0000041D150D9E70329D7D180F85C90F3E7AE
:101F0000B16811F0800112D0F368206843F0020339
:101F1000F36007FB054329469A6D01329A65062254
:101F200083F85D2001F0A0FC8023B3609BE7B368D9
:101F3000DA0698D507FB054292F83F30032B0AD109
:101F40009165F368206843F00203F360294601F0CD
:101F50008BFC1023E9E713F0FD03FAD193652369A5
:101F6000002BF6D1032382F85D30EAE7690100F522
:101F7000A0628E18B36813F0040E06D00423B36079
:101F8000F36843F00203F3606DE7B36813F02003D6
:101F900014D02023B36007FB054393F83D20012AAA
:101FA0007FF461AF83F83DE083F85C90F36843F021
:101FB0000203F360294601F057FC54E7D6F808E025
:101FC0001EF0400F11D007FB0542042182F85D107E
:101FD000012182F83D109365F36843F00203F3603A
:101FE000294601F041FC40239FE7B36813F4007ECB
:101FF00005D0F36843F00203F3602946C8E6B368EE
:10200000DB0711D5F26807FB054342F00202C3F873
:1020100058E02946F260029301F026FC029B01225F
:10202000B26083F85D201EE7B3681B070ED5082356
:10203000B360F36843F00203F360294601F014FC37
:1020400007FB0545052385F85D300CE7B368DB0623
:1020500015D507FB0543032283F85D2093F83D2047
:10206000C3F858B02AB993F83C2012B9012283F87A
:102070003D20F36843F00203F360294667E7B36845
:102080001B060CD5F36843F00203F360294607FBF7
:10209000054501F0E9FB062385F85D3044E7B368A8
:1020A0005B050FD5F36843F00203F360294601F0A6
:1020B000DBFB1023B3604FF48063B36007FB05457F
:1020C0000823C0E7B36898077FF5CDAEF36807FB38
:1020D000054023F00203F36090F85D30012B0ED130
:1020E00080F85C3090F83F30023B012B3FF6DDAECC
:1020F00090F8513083F0010380F85130D5E6032B7E
:1021000002D180F85C90D0E6042BFAD0052B02D1E6
:1021100080F85C30C9E6062B02D0082B7FF4C5AEF0
:1021200007FB0540836D0133032B836584BF0423C4
:1021300080F85C308B5888BFC0F858B023F08043DB
:1021400043F0004398BF80F85C908B50ADE6266862
:10215000B36923F01003B361356AC5F34342022A21
:1021600029D1C5F30A18B8F1000F24D005F00F05E6
:10217000282707FB0547796CE9B14246304601F054
:10218000F9F97B6C43447B64FB6C4344FB6406F5C8
:10219000A0666B019A1911690A4A0A405AB19A5904
:1021A00022F0804242F000429A5197F8503083F07A
:1021B000010387F850302268936943F0100393615C
:1021C000A5E500BF0000F81F38B590F8B832012B24
:1021D00004460DD0012580F8B852006801F070F96E
:1021E0002946206801F016FA002084F8B80238BDAC
:1021F000022038BD90F8B832012B10B5044609D042
:10220000012380F8B832006801F044FC002084F813
:10221000B80210BD022010BD006801F0DDB928230E
:1022200003FB010191F85C007047282303FB0101C7
:10223000C86C7047006801F088BA006801F07ABA8B
:1022400070B5044608B9012070BD90F83D3003F028
:10225000FF021BB980F83C20FFF74EF822682423C8
:1022600084F83D30136823F00103136000F00EFD85
:102270006568414B9D424DD8404B9842E3D9226856
:102280003F495368B0FBF1F123F03F030B43536028
:10229000136A23F03F03013119431162D169364BB0
:1022A00021F44F419D4221F0FF0100F1FF3048D859
:1022B0006D00B0FBF5F00130C0F30B03042B38BF09
:1022C00004230B43D3611168206AE36921F0C00144
:1022D00003430B4313609168E068236921F40341D1
:1022E000034321F0FF010B439360D168A069636948
:1022F00021F0FF0103430B43D360136843F0010354
:10230000136000202023206484F83D30206384F88B
:102310003E0070BD1B4B984295D92268184E5368F9
:10232000B0FBF6F623F03F0333435360136A4FF4D8
:102330009671714323F03F034FF47A76B1FBF6F1C7
:10234000A9E7A36853B905EB4503B0FBF3F0431CC1
:10235000C3F30B036BB143F40043B2E719236B43A0
:10236000B0FBF3F0431CC3F30B0313B143F440433E
:10237000A7E70123A5E700BFA08601007F841E0018
:1023800040420F00FF083D00F8B50446002841D048
:1023900090F8413003F0FF022BB9424B80F8402007
:1023A0004363FEF7E1FF0221226884F84110D369FC
:1023B00023F47B6323F00F03D361636911628B42C3
:1023C00031D0E368002BA3680CBF10252025012025
:1023D000202B98BF6D0000F02FFD23696169B3F5D4
:1023E000007F1BD1E3680A22B3B1AB00B0FBF3F36B
:1023F00053430A22B3FBF1F30533B3FBF2F303F0CB
:10240000010212025B08991EFD290ED9636C43F08C
:10241000100363640120F8BDEB00E7E70A23B0FB7B
:10242000F5F04343E5E70022EDE713432269216815
:102430006668E568A069DFF87CE013430B62A36877
:10244000CF6946EA030242F400622A43024307EAE4
:102450000E073A43CA61226A012A1DD1124A6263F9
:10246000124F134AB94218BF4FF040222B43D16993
:1024700001EA0E01D16102211162D76943F40063C0
:10248000034336F4007143EA07030CBF4FF4807135
:1024900000219BB20B43D36100200123606484F8C8
:1024A0004130F8BDBF240008BD25000800380040B9
:1024B0000034004040F0FFFF7047704770471FB581
:1024C00003689A68019290F84120042A044636D1A4
:1024D000019AD10717D55A68520614D5C26AD9682D
:1024E00022F8021BC262428E013A92B24286428EAA
:1024F00092B242B95A6822F060025A60012380F811
:102500004130FFF7DAFF019B590618D523685A6856
:10251000920614D55A6822F060025A600022029294
:10252000DA6802929B680293029B012384F841308F
:10253000636C43F0020363642046FFF7BFFF94F827
:102540004130032B36D1019B9B0719D52268536874
:10255000180615D5636A33F8021BD1606362638D78
:10256000013B9BB26385638D9BB24BB9536823F0EB
:10257000A0035360012384F841302046FFF79CFFFD
:10258000019B190716D523685A68920612D55A6816
:1025900022F0A0025A60002203929B680393039BDF
:1025A000012384F84130636C43F0040363642046E4
:1025B000FFF784FF04B010BD7047000010B502683B
:1025C0008B49936886B0044600938A4B8A4218BFB1
:1025D0004FF0402399680191516802915968039125
:1025E000416831F4007140F09080009B99071AD542
:1025F000029B1B0617D5436A991C1B884162D36056
:10260000438D013B9BB24385438D9BB25BB95368BD
:1026100023F0A0035360438E9BB223B9012380F8BB
:102620004130FFF7C9FF019BD80722D5039B59060C
:102630001FD5E26A20686E49931CE3626D4B8842A5
:1026400018BF4FF04023D9681180628E013A92B2D0
:102650006286628E92B262B95A6822F060025A6053
:10266000638D9BB22BB9012384F841302046FFF7DC
:10267000A3FF019B5A0622D5039B9B061FD5236807
:102680005B495C4A8B4218BF4FF04022204651689C
:1026900021F0600151605A6822F0A0025A600022C5
:1026A0000492DA6804929B680493049B012384F8E3
:1026B0004130636C43F002036364FFF7FFFE009B4D
:1026C000180720D5029B99061DD5236848495A68EA
:1026D00022F0A0025A60474A8B4218BF4FF04022B6
:1026E000516821F060015160002205929B680593BA
:1026F000059B012384F84130636C43F00403636459
:102700002046FFF7DBFE06B010BD019A92071AD5EE
:10271000039A110617D5426A911C12884162DA6049
:10272000428D013A92B24285428D92B25AB95A68AC
:1027300022F0A0025A60438E9BB223B9012380F895
:102740004130FFF739FF009BDA071CD5029B5B067F
:1027500019D5E36A9A1CE2622268D1681980638EF7
:10276000013B9BB26386638E9BB263B9536823F0CF
:1027700060035360638D9BB22BB9012384F8413011
:102780002046FFF719FF009B58061BD5029B9906B0
:1027900018D522681649536823F060035360154B1F
:1027A0008A4218BF4FF0402320465A6822F0A00208
:1027B0005A60012384F84130636C43F00203636480
:1027C000FFF77CFE019B1A079DD5039B9B069AD5BC
:1027D00022680749074B8A4218BF4FF040235968C7
:1027E00021F0A0015960536823F06003536080E733
:1027F00000380040003400402DE9F341044618B988
:10280000012002B0BDE8F0810368DD0710D4236821
:10281000980758D423681A0700F19A8023685B0749
:1028200000F1B880A269002A40F019810020E8E791
:10283000A64B9A6802F00C02042A07D09A6802F0AC
:102840000C02082A0AD15B68590207D59F4B1B6806
:102850009A03DCD56368002BD9D1D1E763689B4D1F
:10286000B3F5803F11D12B6843F480332B60FEF722
:102870003FFF964D06462B689B03C8D4FEF738FFF2
:10288000801B6428F7D90320BBE7B3F5A02F04D140
:102890002B6843F480232B60E5E72A6822F480321A
:1028A0002A602A6822F480222A60002BDFD1FEF7FA
:1028B0001FFF06462B689F03A9D5FEF719FF801B53
:1028C0006428F7D9DFE7814B9A6812F00C0F07D024
:1028D0009A6802F00C02082A11D15B685E020ED4DD
:1028E0007A4B1A68950702D5E268012A88D11A68DE
:1028F000216922F0F80242EAC1021A608AE7E2681E
:10290000734BB2B101221A60FEF7F2FE6F4D06461C
:102910002B68980707D52B68226923F0F80343EA50
:10292000C2032B6076E7FEF7E3FE801B0228EFD997
:10293000A9E71A60FEF7DCFE644D06462B6899078E
:102940007FF568AFFEF7D4FE801B0228F6D99AE720
:102950006269604B7AB101221A60FEF7C9FE5B4DD5
:1029600006466B6F9F073FF559AFFEF7C1FE801B10
:102970000228F6D987E71A60FEF7BAFE534D0646DD
:102980006B6F98077FF54AAFFEF7B2FE801B0228F7
:10299000F6D978E74D4B1A6C12F0805228D101928B
:1029A0001A6C42F080521A641B6C03F0805301933E
:1029B000019B0126484D2B68D9051BD5A368434DC3
:1029C000012B27D12B6F43F001032B67FEF790FEFD
:1029D0003E4D074641F288382B6F9B0739D5002EB4
:1029E0003FF420AF394A136C23F08053136419E786
:1029F0000026DFE72B6843F480732B60FEF778FE38
:102A000007462B68DA05D9D4FEF772FEC01B0228F0
:102A1000F7D938E7052B04D12B6F43F004032B675C
:102A2000D0E72A6F22F001022A672A6F22F00402FF
:102A30002A67002BCAD1FEF75BFE41F288380746B1
:102A40002B6F9807CBD5FEF753FEC01B4045F7D937
:102A500019E7FEF74DFEC01B4045BDD913E71B4DDE
:102A6000AB6803F00C03082B3FF4CAAE1B4E0023E7
:102A7000022A336034D1FEF73BFE07462B689901EA
:102A80001ED4226AE3691343626A43EA8213E26A4C
:102A900043EA0263A26A0D4C5208013A43EA024338
:102AA0006B6001233360FEF723FE054623689A011D
:102AB0003FF5BCAEFEF71CFE401B0228F6D9E2E64D
:102AC000FEF716FEC01B0228D8D9DCE6003802400B
:102AD00000004742800E47420070004060004742BD
:102AE000FEF706FE04462B689B017FF59FAEFEF7BE
:102AF000FFFD001B0228F6D9C5E600BF134908B543
:102B00008B6803F00C03042B03D0082B03D0104870
:102B100008BD104808BD4A684B68496813F4800333
:102B200014BF0C480A48C1F3881118BF002302F0F3
:102B30003F02A1FB0001FEF743F8044B5B68C3F3BF
:102B4000014301335B00B0FBF3F008BD00380240E5
:102B50000024F40000127A002DE9F0410D460446ED
:102B600010B90120BDE8F081444B1A6802F00F0251
:102B70008A4228D321688F072DD4C80740D43F4B01
:102B80001A6802F00F02954266D3226851076CD48E
:102B9000130707D53A4A2169936823F4604343EA4F
:102BA000C1039360FFF7AAFF354B364A9B68C3F316
:102BB0000313D35CD840344B18600020FEF7B6FCFA
:102BC0000020BDE8F081CAB21A701B6803F00F0341
:102BD0009942C6D1CEE72A4B11F0040F1EBF9A6866
:102BE00042F4E0529A600E0742BF9A6842F4604293
:102BF0009A609A68A06822F0F00202439A60BCE7EB
:102C000062681F4B012A1DD11B6813F4003FA8D036
:102C10001B4EB36823F003031343B360FEF768FD54
:102C200041F288380746B368626803F00C03B3EBDF
:102C3000820FA4D0FEF75CFDC01B4045F3D90320F2
:102C4000BDE8F081911E01291B6802D813F0007FB6
:102C5000DDE713F0020FDAE7EAB21A701B6803F03F
:102C60000F039D427FF47DAF8FE70549E0688B68D5
:102C700023F4E05303438B608AE700BF003C02402B
:102C800000380240101A010800000020044B054AD9
:102C90009B68C3F38223D35C034A1068D840704713
:102CA00000380240201A010800000020044B054AA9
:102CB0009B68C3F34233D35C034A1068D840704723
:102CC00000380240201A0108000000200F23036092
:102CD0000B4B9A6802F0030242609A6802F0F0021D
:102CE00082609A6802F4E052C2609B68DB0803F4D9
:102CF000E0530361034B1B6803F00F030B60704745
:102D000000380240003C0240036813F0050FF7B59D
:102D1000054605D1286810F0020028D103B0F0BDA7
:102D2000414C424E00232360FEF7E2FC0746336825
:102D30001B0115D4AB686A681B0743EA8213C6F807
:102D4000843001232360FEF7D3FC384C0646236809
:102D50001801DFD4FEF7CCFC801B0228F7D904E071
:102D6000FEF7C6FCC01B0228E1D90320D6E70023EA
:102D700001932E4B2E4C1A6C42F080521A641B6C3D
:102D800003F080530193019B236843F48073236015
:102D9000FEF7AEFC06462368D9051BD5234C236FEE
:102DA00013F440731CD1EB6803F44072B2F5407F1A
:102DB0001E4A34D1916823F0704021F4F81120F4B8
:102DC000407001439160116FC3F30B030B43136712
:102DD0000020A3E7FEF78CFC801B0228DBD9C4E7A8
:102DE000EA6802F440729342DDD0236F114A012158
:102DF000116023F44073002111602367236FDA0709
:102E0000D1D5FEF775FC41F288370646236F9B0744
:102E1000C9D4FEF76DFC801BB842F7D9A5E79168CD
:102E200021F4F811CEE700BF6800474200380240A5
:102E300000700040400E4742012820D1114B9A6893
:102E400012F4000204D0012A0F4818BF0020704776
:102E50005A680C4958685302D1F884204CBF0B4B78
:102E60000B4B00F03F00B3FBF0F3D1F88400C2F34A
:102E700088125343C0F30270B3FBF0F07047002098
:102E8000704700BF003802400080BB0000127A008B
:102E90000024F40010B50446002836D000238362D5
:102EA00090F8513003F0FF021BB980F85020FEF774
:102EB000A5FA2168A068A269022384F851300B6842
:102EC00023F040030B6063680343E0680343206919
:102ED000034360690343E0690343206A0343A06A34
:102EE000034302F4007003430B60120C636A02F0A8
:102EF00004021A434A60CB6923F40063CB610020CB
:102F00000123606584F8513010BD012010BD704769
:102F10000368DA6842F00102DA609A6802F0070298
:102F2000062A1EBF1A6842F001021A60002070478C
:102F3000704770477047704703681A69910710B56A
:102F400004460ED5DA6892070BD56FF002021A61BB
:102F50009B6901229B07027777D0FFF7EAFF0023E6
:102F6000237723681A69500710D5DA6851070DD501
:102F70006FF004021A619B69022213F4407F2277EA
:102F8000204668D0FFF7D5FF0023237723681A690E
:102F900012070FD5DA6810070CD56FF008021A6116
:102FA000DB6904229907227720465AD0FFF7C1FF38
:102FB0000023237723681A69D20610D5DA68D00671
:102FC0000DD56FF010021A61DB69082213F4407FFF
:102FD000227720464BD0FFF7ACFF002323772368EE
:102FE0001A69D10708D5DA68D20705D56FF0010252
:102FF0001A612046FEF74AF923681A69100608D5B7
:10300000DA68110605D56FF080021A61204600F0DB
:10301000B6F823681A69520608D5DA68500605D54D
:103020006FF040021A612046FFF785FF23681A6996
:10303000910622D5DA6892061FD56FF0200220464D
:103040001A61BDE8104000F099B8FFF771FF204603
:10305000FFF770FF83E7FFF76BFF2046FFF76AFF7C
:1030600092E7FFF765FF2046FFF764FFA0E7FFF751
:103070005FFF2046FFF75EFFAFE710BD304A0368F1
:10308000904212D0B0F1804F0FD0A2F57C42904216
:103090000BD002F58062904207D002F58062904228
:1030A00003D002F57842904219D14A6823F07003A8
:1030B0001343234A904229D0B0F1804F26D0A2F585
:1030C0007C42904222D002F5806290421ED002F5EE
:1030D000806290421AD002F57842904216D0194A86
:1030E000904213D002F5806290420FD002F58062C8
:1030F00090420BD0A2F59832904207D002F5806240
:10310000904203D002F58062904203D1CA6823F452
:10311000407313434A6923F08003134303608B68B1
:10312000C3620B688362064B984203D003F5806349
:10313000984201D10B69036301234361704700BFCB
:10314000000001400040014010B50446A0B190F8D5
:103150003D3003F0FF021BB980F83C20FFF7D7FE9B
:10316000022384F83D302068211DFFF787FF0123EB
:1031700084F83D30002010BD012010BD704770471D
:103180002DE9F0470668C2683369C16923F44053EA
:1031900013433361044683680069F268034360693E
:1031A00022F41642034322F00C020B431343F36054
:1031B0007369A26923F440731343B1F5004F73613F
:1031C0007A4B7CD19E4203D003F580639E4244D16A
:1031D000FFF76CFD192505FB00F360684FF06409EB
:1031E0004000B3FBF0F3B3FBF9F34FEA0318FFF72A
:1031F0005DFD636868435B00B0FBF3F7FFF756FDC6
:10320000636868435B00B0FBF3F3B3FBF9F309FBBE
:103210001373DB003233B3FBF9F35B0003F4F8778D
:10322000FFF744FD626868435200B0FBF2FAFFF713
:103230003DFD636868435B00B0FBF3F3B3FBF9F358
:1032400009FB13A3DB003233B3FBF9F303F00703ED
:1032500043443B44B360BDE8F087FFF717FD1925F1
:1032600005FB00F360684FF064094000B3FBF0F326
:10327000B3FBF9F34FEA0318FFF708FD63686843EF
:103280005B00B0FBF3F7FFF701FD636868435B0089
:10329000B0FBF3F3B3FBF9F309FB1373DB00323339
:1032A000B3FBF9F35B0003F4F877FFF7EFFC626818
:1032B00068435200B0FBF2FAFFF7E8FCB9E79E4220
:1032C00002D03B4B9E4240D1FFF7F0FC67681925C6
:1032D0004FF0640905FB00F3BF00B3FBF7F3B3FB4A
:1032E000F9F31F01FFF7E2FC636868439B00B0FB42
:1032F000F3F8FFF7DBFC636868439B00B0FBF3F374
:10330000B3FBF9F309FB13831B013233B3FBF9F36E
:1033100003F0F008FFF7CAFC626868439200B0FB54
:10332000F2FAFFF7C3FC636868439B00B0FBF3F35A
:10333000B3FBF9F309FB13A31B013233B3FBF9F31E
:1033400003F00F0343EA080383E7FFF79FFC676876
:1033500019254FF0640905FB00F3BF00B3FBF7F339
:10336000B3FBF9F31F01FFF791FC636868439B000F
:10337000B0FBF3F8FFF78AFC636868439B00B0FB7F
:10338000F3F3B3FBF9F309FB13831B013233B3FBF4
:10339000F9F303F0F008FFF779FC626868439200E4
:1033A000B0FBF2FAFFF772FCBDE700BF001001406E
:1033B0000014014010B5044640B390F8393003F0D2
:1033C000FF021BB980F83820FEF74CF8226824234E
:1033D00084F83930D36823F40053D3602046FFF7D4
:1033E000CFFE23681A6922F490421A615A6922F0CA
:1033F0002A025A61DA6842F40052DA60002020237F
:10340000E06384F8393084F83A3010BD012010BDF3
:103410000A4B013B01D1032070470269002AF8DA08
:103420000369064A43F001030361013AF3D00369DB
:1034300013F00103F9D11846704700BF410D030096
:1034400084B038B505AD85E80E000A9B012B044613
:1034500025D1836B23F480338363C36823F484030F
:1034600023F04003C360C36823F44013C360119B7F
:10347000012B02BFC36843F48013C360FFF7C8FF8A
:10348000089B012B07D1A36843F00603A360A36840
:1034900043F02003A360BDE8384004B07047C36820
:1034A00043F04003C360FFF7B3FF0E9B23B9A36B48
:1034B00043F48033A363E3E7A36B23F48033F9E79A
:1034C000836843F00103836000207047836823F022
:1034D000010383600020704708B5C368012923F009
:1034E000C043C36008D1C36843F00053C3603220B7
:1034F000FEF704F9002008BD19B9C36843F0804302
:10350000F4E7012008BD0000890141F02001064ACE
:103510000161013A05D0036913F02003F9D118467F
:1035200070470320704700BF410D03001023064A77
:103530000361013A05D0036913F01003F9D118466D
:1035400070470320704700BF410D030010B59DF880
:1035500008404CB9033300EB023023F0030300F5BD
:1035600080500B44994201D1002010BD51F8042B2A
:103570000260F7E7033222F003020A4400F58050AC
:10358000914201D108467047036841F8043BF7E7D0
:103590004269806910407047406900F0010070473F
:1035A000D0F8003423F0030310B5C0F80034D0F88D
:1035B000004401F003032343012900F58062C0F8B1
:1035C000003404D14BF680335360002010BD022933
:1035D000FBD141F27073F7E737B500250195D0F8BC
:1035E00040340193019B23F02E030193019B43F48C
:1035F00080730446C0F840346420FEF77FF8019BD6
:1036000023F48073C4F840340A20FEF777F8284684
:1036100003B030BD82B000230193D0F84034019351
:10362000019B23F02E030193019BDA0406D40129A8
:1036300002BF019B43F48053C0F84034019BDB047C
:1036400005D521B9019B23F48053C0F840340020F4
:1036500002B0704784B038B5044605A880E80E0073
:103660000023C4F8003EA36B43F40013A363A36BD1
:1036700023F40023A363A36B23F48023A363E36BEE
:10368000DA053FD5079B032BD4F800343CD143F037
:103690000403C4F8003410212046FFF735FF20460C
:1036A000FFF744FF0023069904F5A0624FF0FF30B6
:1036B0001D468B422BD101212046FFF7ABFFC820CE
:1036C000FEF71CF80023A3614FF0FF336361E36B47
:1036D000DB0521D54FF40073636203F18073A362AD
:1036E000114BC4F80031089B1BB9A36943F01003C8
:1036F000A361A2690D4B1343A361BDE838400020CC
:1037000004B07047D4F8003423F00403C1E790609C
:103710000133D5602032CCE78023636203F5C00318
:10372000A362034BDDE700BF0003E000080020A315
:10373000E000400082B000230193D0F840340193B0
:103740000198C0F3414002B0704700F58060806886
:1037500080B270472DE9F04100EB411707F5A064F6
:103760009DF81C6005464FF0FF30A0604FFA82F8CC
:1037700005F5806C01F00F0E032E6CD8DFE806F023
:103780000261024C40F29D41B8F1000FE16003DAA2
:10379000E16841F4807105E0E96BC90542D5E16853
:1037A00041F06001E1600020DCF81840012101FADD
:1037B0000EF12143CCF81810A969B8F1000F41F0BF
:1037C0000071A961B4BF4FF400440024BDF820503B
:1037D0009DF818109B0503F0FE53C5F30A05D202AD
:1037E00002F4F0422B431343B20402F440220229B4
:1037F00043EA02030CBF4FF40031002123430B4383
:10380000032EC7F8003528D1D7F8003543F0005310
:10381000C7F80035BDE8F08140F29D61B8F1000FB6
:10382000E160B5DBDCF81800012101FA0EF101437B
:10383000CCF81810A969002041F00071A961044674
:10384000C4E740F22521B8F1000FE160EADAE1684F
:1038500041F4C071A6E70120A6E7BDE8F08100F5BC
:103860008060406980B2704700EB411101F5A062B1
:10387000D1F8003513F4802FD1F8003543F08043A0
:10388000C1F800351ED1C36A13F47F0FD1F800359B
:1038900037D123F00043C1F80035D1F8003543F0AB
:1038A0000043C1F80035D1F8003523F40043C1F8D6
:1038B000003540F2E933013B02D011680029FADB00
:1038C00000207047D0F8103413F47F0FD1F8003582
:1038D00017D123F00043C1F80035D1F8003543F08B
:1038E0000043C1F80035D1F8003523F40043C1F896
:1038F000003540F2E933013BE2D011680029FADBE0
:10390000DEE743F00043C1F80035D9E700EB411191
:10391000064AC1F81025D1F8003523F0804343F062
:103920000043C1F800350020704700BF0000088048
:103930002DE9F341C36BDB05164604464A7817D5DB
:103940000D79ADB94EB94B79012B11D11146FFF765
:10395000DDFF002002B0BDE8F081012E08D100EBB0
:103960004213D3F80C0520F06000C3F80C054D712C
:103970000869002866D00B8901381844B0FBF3F0C1
:1039800080B2B0F5807F03D91B020B614FF48070C9
:10399000CF7817B10B8943430B6191F80AE00B69AB
:1039A0004FEA4E7EC3F312080EF0C04E4EEA080EE8
:1039B000DFF8DC8004EB421508EAC0404EEA000064
:1039C000C5F8100516B1C868C5F8140504F5806E71
:1039D000DEF80800D5F800C52CF0005CC5F800C57D
:1039E000C043D5F800C5400700F0005040EA0C0085
:1039F000C5F800052548D5F800C5C0F800C0D0F8C6
:103A000000C02CF0804CC0F800C0D0F800C0DFB17E
:103A10004CF4004CC0F800C0D0F800C04CF0004C92
:103A2000C0F800C00068C5F80005002E91D1002F35
:103A30008FD1002B8DD0C879032813D8DFE800F090
:103A4000071A071A0120A3E72CF4004CE2E7E06A0A
:103A5000DD1CC5F38F0580B2854203D9A06940F013
:103A60002000A061002000909BB2C9682046FFF7AB
:103A70006DFD6EE7DEF81000DD1CC5F38F0580B22A
:103A80008542EFD9A06940F08060EAE78C0101200F
:103A90000000F81F836823F0010310B510210446CD
:103AA0008360FFF731FD2046FFF740FD04F5A0637A
:103AB00004F5E0601A46116821F0802141F0804150
:103AC00042F8201B9042F6D10020196821F40041F1
:103AD00041F0404119600130B0F57A7F02D8196891
:103AE0000029F8DB20339A42EFD14FF0FF33C4F8BE
:103AF00014346361A36843F00103A360002010BD88
:103B00000020704738B5D0F87833DC692178054655
:103B100039B100F017FE2178284600F02FFE00236F
:103B20002370217B41B1284600F00CFE217B284602
:103B300000F024FE00232373617B41B1284600F08E
:103B400001FE617B284600F019FE00236373D5F85F
:103B50007833D86928B10AF0EDF9D5F87833002226
:103B6000DA61002038BDF0B5022285B0012311468C
:103B7000054600F0B2F9FF28064602D1022005B042
:103B8000F0BD0146284600F09FF95020D5F8787323
:103B90000AF0C8F91A2303FB0656F86196F84A336F
:103BA0001A0642BF4370B6F84C334381044641784D
:103BB000284600F0CCFD0146207060890290032069
:103BC000019095F81D0395F81C3362780090284603
:103BD00000F0A9FD00222178284601F0D2F8002348
:103BE0001A460A21284600F078F9FF28C6D01A2381
:103BF00003FB005103FB005091F84A2390F8523325
:103C0000B1F84C1312F0800F0DBFA273E273618301
:103C1000218313F0800F08BFA373B0F85423A17B56
:103C200018BFE373284614BF6283228300F08FFD20
:103C3000E17B6073284600F08AFD2073208B0290A0
:103C4000022695F81D0395F81C33A27B617B019633
:103C50000090284600F067FD608B029095F81D03E8
:103C600095F81C33E27B217B0196009000262846C4
:103C700000F059FD3246617B84F84C60284601F023
:103C800080F83246217B284601F07BF8304676E703
:103C900038B5D0F87833D969A1230374212343744C
:103CA0000722002343828382C2824031044600F00F
:103CB000C9FA054620B9D4F8C833022120469847EE
:103CC000284638BD704770477047D0F8783373B5D1
:103CD000DC6994F84C300546042B3DD8DFE803F04E
:103CE00003061742A600002002B070BD2123A16C7C
:103CF0000374202343740722002343828382C282F9
:103D000000F0A0FA50BB022384F84C3024E0A12339
:103D10000374212343740722002343828382C282D7
:103D200004F1400100F08EFAC0B9626CA36C84F813
:103D30004C0002F0FF115A6802F0FF1291420BD1C1
:103D400094F845105A79914206D1226C1B689A4228
:103D500002D12846FFF7B8FF0120C5E70128FBD0B4
:103D60000423D1E794F84D10012921D002292ED047
:103D7000D5F87833DE6996F84E30032B45D0042B06
:103D8000EAD1317B284600F0EBFF0128E4D1317BFA
:103D9000284600F0A1FFB36A984240D0728B90424F
:103DA0003DD91B1AB362336A18443062032333E0EF
:103DB000606A228B637B0091904298BF82B2E16976
:103DC000284600F089FC022384F84D30D0E7617B5F
:103DD00000F0C6FF012815D1636A228B934283BF8E
:103DE0009B1A6362E36900238ABF9B186362E361E5
:103DF000636A0BB10123E7E784F84D302846FFF7EB
:103E000061FFB5E70228B3D1F4E7337B728B316AE7
:103E1000284600F078FC042386F84E309CE7002307
:103E200086F84E302846FFF74EFF95E7002100F058
:103E30000DFC002890D184F84C008DE700F56073EC
:103E400000F56F72002143F8041B9342FBD100F58B
:103E50008E7200F54771002302F8013B9142FBD1BD
:103E600001224021037043708270C0F8BC33027697
:103E70008171437680F81C3380F81D230020704741
:103E800038B50D46044680B1002380F8C023C0F841
:103E90007833C0F87C33FFF7D1FF0DB1C4F8C853B5
:103EA000204600F0BBFE002038BD022038BD49B1DD
:103EB000D0F87C3333B90122C0F87C23C0F87413E6
:103EC000184670470220704790F838338B4286BFFF
:103ED00080F8201300200220704770B5002490F86D
:103EE00043638E42E5B201D0FF290BD190F84463C1
:103EF000964201D0FF2A05D190F845639E4207D033
:103F0000FF2B05D00134022C00F11A00E7D1FF2568
:103F1000284670BD10B5044600F0A6FE01212046DB
:103F200000F022FF002010BD30B587B002238DF8CD
:103F3000173090F81F33044633B9027822B1027863
:103F4000032A1CBF0322027022780B2A18D8DFE84C
:103F500012F00C001A001F00210117004F0007018A
:103F6000C600D000DA00E700180194F81E333BB118
:103F70000123C820237000F013FF204600F09EFEAE
:103F8000002007B030BD012BFAD102232370F7E7E0
:103F9000642000F005FF204600F082FE0523237018
:103FA00084F81D030021204600F0D1FB80216071C0
:103FB000204600F0CCFBA27994F81C332071014616
:103FC0000292002594F81D2300920195802220463C
:103FD00000F0A9FBA279029294F81D23009294F8B4
:103FE0001C33617901952A46204600F09CFBC7E707
:103FF0006378072BC4D8DFE803F004151E3038417E
:104000004F5D0821204600F0FAF905460028B7D197
:10401000012394F829236370217994F81C33A27149
:104020000292CFE71221204600F0E9F90028A7D13B
:1040300002236370A4E70121204600F0DDFA054663
:1040400000289DD1022000F0ABFE03220123627004
:1040500084F81C332179A279E2E70921204600F097
:1040600016FA00288CD10423E3E7B4F8361320466F
:1040700000F00DFA002883D10523DAE794F8301315
:1040800041B1FF2304F58E72204600F08EFA00281D
:104090007FF476AF0623CCE794F8311341B1FF23C8
:1040A00004F58E72204600F080FA00287FF468AF95
:1040B0000723BEE794F8321341B1FF2304F58E7253
:1040C000204600F072FA00287FF45AAF002384F8EB
:1040D000203394F83333012B09D0072356E7D4F863
:1040E000C833002B3FF44CAF0121204698470823EA
:1040F0004CE794F83913204600F08CFA00287FF43E
:104100003FAF092342E794F83B339B0606D50121D4
:10411000204600F08DFA00287FF432AF0A2335E7FD
:10412000D4F87C33002B3FF42BAF0023C4F8783352
:10413000D4F8743394F843231979914208BFC4F832
:104140007833D4F87833D3B19B6820469847B0B918
:10415000062323700321D4F8C833204698470FE77D
:10416000D4F878335BB11B69204698478DF8170067
:104170009DF81730002B7FF403AF0B2306E70D23C8
:1041800004E7D4F87833002B3FF4FAAE5B6920469D
:104190009847F5E62046FFF751FED4F87833002B18
:1041A0003FF4EEAEDB68204698470023C4F878332E
:1041B000E6E6C0F8BC137047D0F8BC230132C0F863
:1041C000BC2302780B2A04D1D0F878330BB19B6959
:1041D00018477047012380F81F337047002380F889
:1041E0001F337047027808B54AB9D0F8C8330122A6
:1041F00080F81E230BB104219847002008BD90F8D9
:104200001F23012A04BF02220270F6E710B50446FC
:1042100000F038FD2179204600F0B0FA617920469F
:1042200000F0ACFA002384F81E33D4F8C83313B17D
:10423000052120469847204600F016FD03232370F1
:10424000002010BD13B504468078012803D0022851
:1042500008D0012004E00223A160A2812076A3708F
:1042600002B010BD237E013B01210A2BF1D8DFE80B
:1042700003F0060F2B36404C646F808C95006279FA
:1042800004F11001204600F0EFF902232376E0E765
:104290006179204600F064FD01280FD1E28A94F98B
:1042A00010302AB1002B01DA0323EFE70523EDE7F5
:1042B000002B01DA0923E9E70723E7E7042801D007
:1042C0000228C6D10B23E1E7D4F8BC33E381A289ED
:1042D0002379A168204600F0EFF90423D6E721797D
:1042E000204600F03DFD0128E4D0052815D0042823
:1042F000E7E763790091A289A168204600F0C5F93B
:10430000D4F8BC33E3810623C0E76179204600F08E
:1043100027FD0128D0D0052805D10123A370002353
:10432000237603209CE70228C0D0042891D10B23D8
:1043300023760123A370022092E7002223791146FD
:10434000204600F0B9F9D4F8BC33E38108239DE797
:104350002179204600F004FD012804D1012300202A
:10436000A37020767CE70428ACD005287FF471AFD9
:10437000D3E70022637900912046114600F085F9C9
:10438000D4F8BC33E3810A2380E76179204600F04A
:10439000E7FC0128E2D00228A9D18BE7637E013334
:1043A000DBB2022B637606D8204600F06BFC0123BB
:1043B0002376A3704DE7D4F8C833062120469847EA
:1043C00000236376B5E730B48478BDF80850012C3B
:1043D00010D161F07F04047402F47F44B4F5407F8F
:1043E00042824FF006010CBF40F2094200224174A4
:1043F0008282C5822A46194630BCFFF723BF37B5F3
:1044000000F58E730D4600914FF480720021044632
:10441000FFF7D9FFC8BB94F81C3184F8223394F815
:104420001D3184F82333B4F81E31A4F8243394F8F2
:10443000203184F8263394F8213184F8273394F816
:10444000223184F82833082D94F8233184F8293355
:104450001BD9B4F82431A4F82A33B4F82631A4F8CF
:104460002C33B4F82831A4F82E3394F82A3184F888
:10447000303394F82B3184F8313394F82C3184F8AC
:10448000323394F82D3184F8333303B030BD2DE945
:10449000F74300F11C050E4600912B464FF40072C5
:1044A00000210446FFF78FFF48BB237F84F8343395
:1044B000637F84F8353394F8203084F8383394F8E7
:1044C000213084F8393394F8223084F83A3394F860
:1044D0002330B4F81EE084F83B33092E94F82430DE
:1044E000A4F836E384F83C3309D927462B46064620
:1044F00009224FF01A0C022E01D0964502D803B0C3
:10450000BDE8F08319780B440A445978042992B223
:10451000F1D1197887F83E13597887F83F139978C5
:1045200087F84013D97887F84113197987F842132F
:10453000597987F84313997987F84413D97987F81B
:104540004513197A87F846130CFB06F8002197F8F3
:1045500042538D4202D801361A37CCE79645FAD934
:104560001D782B442A445D78052D92B2EFD14D1C65
:1045700008EBC501214493F8009081F8409393F82B
:10458000019081F8419393F8029081F8429393F857
:10459000039081F84393B3F80490A1F8449393F8FF
:1045A000069081F84693E9B2D1E7F7B500F58E752C
:1045B00014461F46009341F440722B4600210646E4
:1045C000FFF701FF78B996F81D31032B0BD196F850
:1045D0001C31023BBB4228BF3B469BB20246934282
:1045E00003D80023237003B0F0BDA91802328978E4
:1045F00004F8011B92B2F2E78378012B06D1002365
:1046000005220374427441828382C38200221146D0
:10461000FFF718BE8378012B06D10023092203740B
:10462000427441828382C38200221146FFF70ABE90
:104630008378012B06D10023032203744274418244
:104640008382C38200221146FFF7FCBD8378012BD1
:1046500006D1022243740023027443828182C38202
:1046600000221146FFF7EEBD30B585B00024154697
:10467000082302930191039400942346224629467D
:1046800000F054FB204605B030BD30B590F81D5306
:1046900085B0002D1C469DF82030029218BF0023E3
:1046A000039301230093002301911A46214600F051
:1046B0003DFB002005B030BD30B585B000241D465F
:1046C000029201220191039400922346294600F0B0
:1046D0002DFB204605B030BD30B590F81D5385B098
:1046E000002D1C469DF82030029218BF0023039332
:1046F00001230191009300220223214600F016FBC2
:10470000002005B030BD30B585B01D4600240292B2
:1047100001220191039400920223294600F006FB36
:10472000204605B030BD1FB5BDF8204002949DF86D
:104730001C4001949DF81840009400F0D1FA00202C
:1047400004B010BD08B500F0E3FA002008BD30B594
:10475000002300F5607454F8045B2D04DAB207D42A
:10476000E03341F4004140F8231092B2D0B230BDA2
:1047700001330B2BEFD14FF6FF72F7E70A299FBFEA
:1047800000EB8100D0F88033C3F30E03C0F8803310
:1047900000207047072908B515D108F001FB014634
:1047A000094809F0FDFD094B094A196839B1002192
:1047B000196003211068BDE8084008F02ABA0121F9
:1047C00019600221F6E708BDBC4B0E0898010120D4
:1047D000B8010120072908B515D108F0E1FA014612
:1047E000094809F0DDFD094B094A196839B1002172
:1047F000196003211068BDE8084008F00ABA0121D9
:1048000019600221F6E708BDBC4B0E089401012097
:10481000B40101200021F8B5084602F001FA9D4CD0
:104820009D4D20609D499E4E9E4F284603F026F8E0
:10483000FF23294620682B716B71AB71EB712B72D2
:104840006B72AB72EB7202F0BBFB00212068964DDD
:1048500009F08EF99549286009F0FBF828680121D4
:1048600009F0E7F8FA222868914D3C2101F061FF38
:104870000021206809F07CF98E49286009F0E9F8E8
:104880002868012109F0D5F88C2228688A4D4FF458
:10489000AF7101F04EFF0021206809F069F98749E6
:1048A000286009F0D6F82868012109F0C2F8322200
:1048B0002868834D4FF4AF7101F03BFF0021206861
:1048C00009F080FA32460021286009F0C3FA324626
:1048D0002868022109F0BEFA32462868032109F04F
:1048E000B9FA32462868012109F0B4FA324628683C
:1048F000002109F0AFFA32462868724E042109F00F
:10490000A9FA40F2451228686F4D4FF4BE7101F0CC
:1049100010FF0021206809F055FA32460021286076
:1049200009F098FA32462868022109F093FA3246D3
:104930002868032109F08EFA32462868012109F01F
:1049400089FA32462868002109F084FA324628683C
:104950005E4E042109F07EFA40F2451228685C4D53
:104960004FF4F57101F0E5FE0021206809F02AFA04
:1049700032460021286009F06DFA3246286802218B
:1049800009F068FA32462868032109F063FA3246D2
:104990002868012109F05EFA32462868002109F0F2
:1049A00059FA324628684B4E042109F053FA40F276
:1049B00045122868484D4FF4167101F0BAFE0021E7
:1049C000206809F0FFF932460021286009F042FA18
:1049D00032462868022109F03DFA28683F4A03213F
:1049E00009F038FA32462868012109F033FA3246D4
:1049F0002868002109F02EFA32462868384E042132
:104A000009F028FA2868374901F0A6FD2868032133
:104A100008F0FFF8E6222868334D4FF4AF7101F03B
:104A200088FE0021206809F0CDF932460021286077
:104A300009F010FA32462868022109F00BFA3A46CA
:104A40002868032109F006FA3A462868012109F08E
:104A500001FA32462868002109F0FCF9324628683C
:104A6000042109F0F7F92868012108F0C9F828683D
:104A70001E4901F071FD2868032108F0CAF8286872
:104A800001224FF4257101F054FE2068BDE8F84082
:104A900000F033BC90010120BC0101206C5B0120BF
:104AA0004000002058000020A401012094000020B4
:104AB000A0010120880000209C0101207C00002032
:104AC000A80101204C000020AC0101207000002052
:104AD000B001012028000020B40101203400002092
:104AE00064000020D5470008B80101209547000860
:104AF00004290AD0052904D0022905D1044B1970D4
:104B000070470322024B1A7070470122FAE700BF78
:104B10000C02012008B501220B490C48FFF7B0F93F
:104B200008B1FCF7C7FB0A490848FFF7C0F908B10C
:104B3000FCF7C0FB0548FFF7EDF918B1BDE80840E8
:104B4000FCF7B8BB08BD00BFF14A000808510120BE
:104B5000080000200148FFF7E7B900BF0851012015
:104B600030B5044689B01422002103A809F003FCE3
:104B70002368B3F1A04F35D11B4C1C48002501958B
:104B8000236B43F001032363236B03F001030193C1
:104B9000019B03A94FF400730393FCF717FE4FF436
:104BA000E05303930223049303A90A230F480793B6
:104BB00005950695FCF70AFE636B43F0800363637B
:104BC0000295636C43F480436364636C03F4804335
:104BD000029343202A462946029BFCF7B5FD432059
:104BE000FCF7E6FD09B030BD00380240000002408D
:104BF000D0F8C002FFF7E0BAD0F8C002FFF7F2BA6F
:104C0000D0F8C002FFF702BB7047D0F8C002FFF730
:104C1000E1BAD0F8C002FFF7E1BA000010B590F891
:104C2000C033012B04461BD10E48C4F8C4034FF017
:104C3000A042026008228260C36002220023C0F802
:104C4000C04203618261C361FCF7F6FE08B1FCF764
:104C500031FB0448FDF7EEFA01462046FFF7A9FABA
:104C6000002010BDD454012008B5D0F8C403FDF7CE
:104C7000ABFA03289ABF024B185C022008BD00BFA4
:104C8000CA4B0E0808B5D0F8C403FDF7B3FA0328E1
:104C90009ABF024B185C022008BD00BFCA4B0E0829
:104CA00008B5D0F8C403FDF7C8FA02289ABF024B32
:104CB000185C012008BD00BFC74B0E0808B5D0F82E
:104CC000C403FDF7A9FA03289ABF024B185C02201F
:104CD00008BD00BFCA4B0E08D0F8C403FDF7A5BA43
:104CE0001FB5BDF8204002949DF81C4001949DF82A
:104CF00018400094D0F8C403FCF754FE03289ABF70
:104D0000024B185C022004B010BD00BFCA4B0E0855
:104D100008B5D0F8C403FCF77DFE03289ABF024B08
:104D2000185C022008BD00BFCA4B0E081FB59DF8D5
:104D300024400394BDF820400294079C01949DF800
:104D400018400094D0F8C403FCF7C0FE03289ABFB3
:104D5000024B185C022004B010BD00BFCA4B0E0805
:104D6000D0F8C403FDF75BBA08B590F8C033012B47
:104D700002D1084600F016F8C820FCF7BFFC00205E
:104D800008BDD0F8C403282303FB010191F83B3090
:104D90001BB181F850200020704781F85120FAE7BC
:104DA000FCF7ACBCB0FA80F2520901210148FCF7D3
:104DB000EDBD00BF00080240024B1A780AB1002284
:104DC0001A707047A000002038B50E4C054601222D
:104DD00020464FF40051FCF7D9FD0B4B586920F0E9
:104DE000FF0028435861002220464FF48051FCF711
:104DF000CDFD204601224FF48051BDE83840FCF73C
:104E0000C5BD00BF00040240000C024038B5114C83
:104E10000546002220464FF40051FCF7B7FD0E4B2B
:104E2000586920F0FF0028435861002220464FF4C3
:104E30008051FCF7ABFD204601224FF48051FCF776
:104E4000A5FD204601224FF40051BDE83840FCF793
:104E50009DBD00BF00040240000C024070B5BA4B7B
:104E6000BA48012422464FF480411C70FCF78EFDA5
:104E70003220FCF743FC00224FF48041B348FCF79A
:104E800085FD3220FCF73AFC22464FF48041AF48C2
:104E9000FCF77CFD3220FCF731FC2046FFF7B6FF23
:104EA0001420FCF72BFC2046FFF7B0FF1420FCF782
:104EB00025FC2046FFF7AAFF1420FCF71FFCFA2070
:104EC000FCF71CFCE220FFF7A1FF2320FFF77CFF8B
:104ED0000220FFF779FF0420FFF776FFE020FFF7BD
:104EE00095FF2046FFF770FF2046FCF707FCE02007
:104EF000FFF78CFF0320FFF767FF2046FCF7FEFB60
:104F00002046FFF783FF2046FCF7F8FBE620FFF77B
:104F10007DFF2046FFF758FF4720FFF755FFB120E0
:104F2000FFF752FFB020FFF771FF2020FFF74CFF83
:104F30000020FFF749FF06F071FD06F075FD01380E
:104F4000C0F30720FFF740FF06F068FD06F06CFD98
:104F50000138C0B2FFF738FF06F060FD06F076FDBD
:104F60000138C0F30720FFF72FFF06F057FD06F0CA
:104F70006DFD0138C0B2FFF727FF0020FFF724FFC7
:104F80002046FCF7BBFBB420FFF740FF0420FFF7EF
:104F90001BFF1F20FFF718FF0020FFF715FFD2208F
:104FA000FFF712FF0020FFF70FFF0020FFF70CFFB5
:104FB0000020FFF709FF0020FFF706FFB620FFF7EC
:104FC00025FF0220FFF700FF0C20FFF7FDFE002069
:104FD000FFF7FAFE2220FFF7F7FE0020FFF7F4FEAE
:104FE0000020FFF7F1FE0020FFF7EEFEB820FFF7EC
:104FF0000DFF0720FFF7E8FE2046FFF7E5FEBA2089
:10500000FFF704FF0F20FFF7DFFE3620FFF7FEFE5D
:105010001020FFF7D9FE3A20FFF7F8FE5020FFF7E7
:10502000D3FEF020FFF7F2FE0020FFF7CDFEBC20FC
:10503000FFF7ECFE4020FFF7C7FE8020FFF7C4FE1D
:105040004020FFF7C1FE2046FFF7BEFE2046FCF7DA
:1050500055FB2A20FFF7DAFE0020FFF7B5FE0020FF
:10506000FFF7B2FE06F0DAFC06F0DEFC0138C0F312
:105070000720FFF7A9FE06F0D1FC06F0D5FC0138A9
:10508000C0B2FFF7A1FE2B20FFF7C0FE0020FFF704
:105090009BFE0020FFF798FE06F0C0FC06F0D6FC51
:1050A0000138C0F30720FFF78FFE06F0B7FC06F0CB
:1050B000CDFC0138C0B2FFF787FE2C20FFF7A6FE1B
:1050C000002506F0ABFC06F0AFFCABB2834215DA6C
:1050D000002408E00020FFF777FE0020FFF774FEB1
:1050E0000020FFF771FE06F099FC06F0AFFCA6B2B7
:1050F000864204F10104EDDB0135E2E72920FFF7E8
:1051000085FEBE20FFF782FE0620FFF75DFEF02041
:10511000FFF75AFE0120FFF757FEF020FFF754FE7D
:105120000020FFF751FE0020FFF74EFED020FFF7D2
:105130006DFE0D20FFF748FE2C20FFF767FE1E20B6
:10514000BDE87040FCF7DABAA0000020000402407D
:10515000B1F90430002B2DE9F04706468A46174680
:105160007DDBB1F90630002B79DB06F057FC06F049
:105170005BFCBAF90030834271DA06F04FFC06F0AE
:1051800065FCBAF90250A84269DDBAF9004006F0A0
:1051900045FC06F049FC24EAE479BAF90440A0424F
:1051A00025EAE57804DC06F039FC06F03DFC441EF7
:1051B00006F034FC06F04AFCBAF90650A84204DCBA
:1051C00006F02CFC06F042FC451E2A20FFF71EFECE
:1051D000C9F30720FFF7F8FD5FFA89F0FFF7F4FD48
:1051E000C4F30720FFF7F0FDE0B2FFF7EDFD2B2041
:1051F000FFF70CFEC8F30720FFF7E6FD5FFA88F023
:10520000FFF7E2FDC5F30720FFF7DEFDE8B2FFF789
:10521000DBFD2C20A5EB0805FFF7F8FDA4EB090446
:10522000FFF7CAFD05FB04444FF000082C44A045DD
:1052300007F1040704D93046BDE8F04706F022BC68
:1052400017F8020CFFF7C0FD17F8030CFFF7BCFDC1
:1052500017F8040CFFF7B8FD08F10108E7E7BDE80F
:10526000F0870000F8B50022102106461B48FCF725
:105270008DFB1B4A9388D3801A4B9988D98051881B
:10528000918059889980118851801988598000210E
:10529000118019801449087803289CBF01300870D8
:1052A0000F7800210C460D46C8B287420DD8012266
:1052B00010210A48FCF76AFB95FBF7F594FBF7F41D
:1052C0000120B07335807480F8BD32F911000544B7
:1052D00033F9110001310444E6E700BF0008024041
:1052E0009A570120A25701209857012008B510B9FC
:1052F00006F094FB00B1806B08BD10B5044601F0C8
:1053000085F984632046BDE8104001F0A5B908B5D1
:1053100010B906F083FB00B1C06B08BD08B510B929
:1053200006F07CFB00B1006C08BD10B5002428B964
:105330006CB12046BDE8104001F0DEB990F8303085
:1053400013F0200F18BF044601F016FEEFE710BD62
:105350002DE9F047C5680446894692460127002694
:10536000002D4DD194F86C30DB0603D4002E56D0BE
:10537000BDE8F087002F54D02046C8470546002ED0
:105380003AD1002D4DD02E460027286801F0A6FE08
:1053900080460028E4D1E368AB4242D083B118686C
:1053A0004246C36910219847E36842460D211868B8
:1053B00001F018F9012834D1E368186801F04CF9BC
:1053C0002868E560C36900220F219847E36800223E
:1053D0000C21186801F006F9012822D1E368186849
:1053E000FFF7A3FFE368186801F036F9A369C3B1BA
:1053F0002046BDE8F04718470027002DC5D1B1E78A
:1054000029462046D047002E08BF2E46B04205460A
:10541000F3D1BDE8F0872046C8470546B1E7002F25
:10542000F9D1BDE8F08700007021014806F045BEC3
:10543000105C012090F86C30DB0703D4024A03496A
:10544000FFF786BF704700BF53C1000847C100087F
:1054500090F86C30DB0703D4024A0349FFF778BFAA
:10546000704700BF5DC100084DC1000838B590F815
:105470006C30C3F3001543F0100380F86C301B0749
:10548000044608D4FFF7D6FF94F86C3065F3041394
:1054900084F86C3038BDFFF7DBFFF5E770B50C46DC
:1054A000054628B306F04FFE78B9E36A33B12046CB
:1054B00001F09EFE10B1E06AFFF7D8FFE5622846D2
:1054C00006F023FE064640B9FEE70368A3420FD06C
:1054D0000146284606F03DFEE6E70460284606F051
:1054E00032FE864204D12846BDE87040FFF7BEBFB9
:1054F00070BD38B5044600F11C05284602F0BEF91F
:1055000094F86C309B074CBF6369236913B129463B
:1055100020469847284638BD10B1C06800B10068E1
:10552000704713B50191FFF7F7FF044660B1C369F7
:1055300001AA11219847012804D101AA0B21204674
:1055400001F050F802B010BD0120FBE738B590F82B
:105550006C30C3F340028A42044618D061F3410321
:1055600080F86C30FFF7D8FF054620B92846BDE823
:10557000384001F071B8C36900220F219847E368F1
:1055800000220C21186801F02DF80128EED038BD5A
:1055900070B5064670B1C46A64B194F86C1011F02D
:1055A000010107D12046FFF7D1FF204606F0CBFDD1
:1055B000054600B970BD2B689E422ED1E36883B1C9
:1055C00018680022C36910219847E36800220D2162
:1055D000186801F007F80128ECD1E368186801F0B9
:1055E0003BF82868E560C36900220F219847A3694A
:1055F0000BB120469847E36800220C21186800F0A0
:10560000F1FF0128D6D1E368186801F025F8E368B6
:10561000BDE870401868FFF788BE2946204606F0AE
:1056200098FDC5E718B190F86C00C0F340007047D2
:1056300018B190F86C00C0F38000704790F830000B
:1056400010F002001EBF034B00221A60003018BF8A
:105650000120704714020120F8B50C460746011DD1
:1056600004F1100006F0E2FB08B90020F8BD261D89
:10567000304606F068FD054630B9204601F033FD9E
:105680000028F2D0254612E029463846FFF7E4FF0D
:1056900088B92946304606F05CFDECE7284601F063
:1056A0001DFD0028E1D1284601F066FC0546002DCD
:1056B000F4D12046F8BDF8BD2DE9F04F0446A34EC5
:1056C00094F83030806930601A0785B000F1248189
:1056D0009F4F3B68DD68D8B92846FFF71FFE01469B
:1056E0002046FFF7B9FF306038B92846FFF70FFEB4
:1056F00001462046FFF7B0FF306033688BB928467B
:10570000FFF7F4FD01462046FFF7A6FF306008E0F2
:1057100094F824309B0709D4102101F05AFD002889
:10572000DAD0A56933689D4240F0A5802389A0881E
:10573000E188B4F91420C01A6389C91AB4F9163083
:1057400002EB8202D21003EB830300B209B2DB103A
:10575000002AA081E181A282E38280F2E980013205
:10576000A282002B80F2E8800133E382A38A03EB5C
:105770006000E38AA082306803EB6101E1820028C7
:1057800000F0CA803A68C369082198472046FFF7AD
:1057900055FF0246002840F0BF800121306800F02C
:1057A00021FF2046FFF74AFF002840F0B580A56999
:1057B000284601F0ACFC8046002800F0CB80002D8C
:1057C00040F0BE802046FFF739FF002840F0A4805B
:1057D00094F82430980700F19F8094F83030D9076E
:1057E00027D4A06A06F008FA3A68D38A98421CD9EE
:1057F00030680B21C36998472046FFF71FFF024618
:10580000002840F089800421306800F0EBFE20463B
:10581000FFF714FF00287FD194F8303043F00103E4
:1058200084F8303006F0DAF9E06294F824309A0710
:1058300072D494F83030DB076ED5E06A06F0DCF9FC
:105840003A68138B984267D930680C21C36998472E
:105850002046FFF7F3FE024600285DD1052130689F
:1058600000F0C0FE2046FFF7E9FE002854D106F004
:10587000B5F9E06250E0A3882381E3886381002DBD
:1058800037D13368A361E361002B3FF44FAF06F0DB
:10589000A5F994F83030A0626FF3000384F830303B
:1058A00094F82430306803F0FE036FF3410384F86A
:1058B0002430002323826382A381E3811D4670BBD1
:1058C00015B1284600F018FF30683A68C36907210F
:1058D00098472046FFF7B2FE0246E8B90146306815
:1058E00000F080FE2046FFF7A9FE00283FF41EAF1F
:1058F00012E03A68EB690921284698472046FFF7ED
:105900009DFE024640B90221284600F06BFE20466B
:10591000FFF794FE0028B4D005B0BDE8F08F90F8F2
:10592000303013F0200F18BF054601F025FBC6E705
:105930003FF417AF013A13E73FF418AF013B14E708
:10594000284601F019FB054632E700BF140201208A
:1059500010020120002D3FF435AF284601F0C8FBAE
:10596000814600283FF42EAF284601F0C6FB218A6D
:10597000A28903461144E089628A024494F8240013
:1059800009B212B2C0072182628218D4D80706D5A4
:1059900038680029007DB8BF4942814208DA98077B
:1059A0000DD53968002A097DB8BF52428A4206DB0C
:1059B00094F8242042F0010284F82420C84694F888
:1059C0002420D1077FF5FEAEE268002A3FF4FAAE4C
:1059D0003A680393D06806F05DF8B5F9103000938B
:1059E0008146B5F912300193284601F0C5FA01F05D
:1059F00003FB8346284601F0BFFA01F003FB824611
:105A0000284601F0EDFA0290284601F0EFFA039BD8
:105A10000299032B38D1B8F1000F05D0238A628A8E
:105A20001944104409B200B2E289A389024419441E
:105A300012B209B2284600F07CFEB5F91030009A87
:105A400093423FD1B5F91230019A93423AD1284698
:105A500001F092FA01F0D0FA8046284601F08CFA63
:105A600001F0D0FAC3457FF4ADAE82457FF4AAAE13
:105A70003B68D86806F00EF83B68A0EB090189B2D4
:105A8000D86806F00CF89DE6DA070CD5B8F1000FDF
:105A900002D0238A194409B2A389194409B22846BD
:105AA00000F08AFEC9E79B07C7D5B8F1000F02D006
:105AB000628A104400B2E189014409B2284600F02C
:105AC00085FEBAE794F8243043F0020384F82430CA
:105AD000B8F1000F3FF476AE3A68EB690D21284625
