:020000040800F2
:1000000000000220613F0008090B00080B0B0008EC
:100010000D0B00080F0B0008110B0008000000007A
:10002000000000000000000000000000130B0008AA
:10003000150B000800000000170B0008190B000842
:10004000B13F0008B13F0008B13F0008B13F0008D0
:10005000B13F0008B13F0008B13F0008B13F0008C0
:10006000B13F0008B13F0008B13F0008B13F0008B0
:10007000B13F0008B13F0008B13F0008B13F0008A0
:10008000B13F0008B13F0008B13F0008B13F000890
:10009000B13F0008B13F0008B13F0008B13F000880
:1000A000B13F0008B13F0008B13F0008B13F000870
:1000B000B13F0008B13F0008B13F0008B13F000860
:1000C000B13F0008B13F0008B13F0008B13F000850
:1000D000B13F0008B13F0008B13F0008B13F000840
:1000E000B13F0008B13F0008B13F0008B13F000830
:1000F000B13F0008B13F0008B13F0008B13F000820
:10010000B13F0008B13F0008B13F0008B13F00080F
:10011000B13F0008B13F00081D0B0008B13F0008C7
:10012000B13F0008B13F0008B13F0008B13F0008EF
:10013000B13F0008B13F0008B13F0008B13F0008DF
:10014000B13F0008B13F0008B13F0008290B00088B
:10015000B13F0008B13F0008B13F0008B13F0008BF
:10016000B13F0008B13F0008B13F0008B13F0008AF
:10017000B13F0008B13F0008B13F00080000000097
:08018000B13F0008B13F000887
:1001880010B5054C237833B9044B13B10448AFF3C9
:1001980000800123237010BD2C0500200000000002
:1001A800B446000808B5034B1BB103490348AFF335
:1001B800008008BD0000000030050020B44600089B
:1001C80053B94AB9002908BF00281CBF4FF0FF31B6
:1001D8004FF0FF3000F07AB9ADF1080C6DE904CEAC
:1001E80000F006F8DDF804E0DDE9022304B070470A
:1001F8002DE9F0478C460D460446089E002B51D148
:100208008A4217466DD9B2FA82FEBEF1000F0BD0B2
:10021800CEF1200C01FA0EF520FA0CFC02FA0EF7CA
:100228004CEA050C00FA0EF44FEA174A250CBCFB01
:10023800FAF81FFA87F90AFB18CC45EA0C4508FBBF
:1002480009F3AB420AD9ED1908F1FF3280F0238196
:10025800AB4240F22081A8F102083D44ED1AA4B255
:10026800B5FBFAF00AFB105544EA054400FB09F90E
:10027800A14509D9E41900F1FF3380F00A81A145AD
:1002880040F2078102383C44A4EB090440EA0840E4
:100298000021002E61D024FA0EF40023346073602C
:1002A800BDE8F0878B4207D9002E54D0002186E89C
:1002B80021000846BDE8F087B3FA83F1002940F031
:1002C8008E80AB4202D3824200F2FA80841A65EB38
:1002D80003050120AC46002E3FD086E81010BDE88B
:1002E800F08712B90127B7FBF2F7B7FA87FEBEF11C
:1002F800000F34D1EB1B3A0C1FFA87FC0121B3FB2A
:10030800F2F8250C02FB183345EA03450CFB08F309
:10031800AB4207D9ED1908F1FF3002D2AB4200F227
:10032800D1808046ED1AA3B2B5FBF2F002FB10555E
:1003380043EA05440CFB00FCA44507D9E41900F185
:10034800FF3302D2A44500F2B8801846A4EB0C048F
:1003580040EA08409DE731463046BDE8F087CEF1D7
:10036800200405FA0EF307FA0EF720FA04F83A0CFF
:1003780025FA04F448EA0308B4FBF2F14FEA1845F9
:1003880002FB11441FFA87FC45EA044501FB0CF304
:10039800AB4200FA0EF409D9ED1901F1FF3080F0F3
:1003A8008A80AB4240F2878002393D44EB1A1FFA3B
:1003B80088F5B3FBF2F002FB103345EA034500FB76
:1003C8000CF3AB4207D9ED1900F1FF386FD2AB42FD
:1003D8006DD902383D44EB1A40EA01418FE7C1F17B
:1003E800200722FA07F88B4005FA01F448EA0303CC
:1003F80020FA07FE4FEA134CFD404EEA040EB5FB07
:10040800FCF94FEA1E440CFB19551FFA83F844EA1D
:10041800054509FB08F4AC4202FA01F200FA01FAB8
:1004280008D9ED1809F1FF3043D2AC4241D9A9F1FE
:1004380002091D442D1B1FFA8EFEB5FBFCF00CFBB8
:1004480010554EEA054400FB08F8A04507D9E41802
:1004580000F1FF3529D2A04527D902381C4440EACB
:100468000940A4EB0804A0FB02894C45C6464D464A
:1004780015D312D056B1BAEB0E0364EB050404FA97
:1004880007F7CB401F43CC40376074600021BDE8BC
:10049800F0871846F8E69046E0E6C245EAD2B8EB9F
:1004A800020E69EB03050138E4E72846D7E7404622
:1004B80091E78146BEE7014678E702383C4445E7C4
:1004C800084608E7A8F102083D442BE7704700BF3B
:1004D80070B5302298B00DEB0200002103F0AEFF9A
:1004E8001422002107A803F0A9FF0021102203A865
:1004F80003F0A4FF0025214B01951A6C42F08052AD
:100508001A641B6C03F080530193019B1C4B0295EA
:100518001A6842F480421A601B6803F4804302930D
:10052800029B4FF480330D934FF4800313930823F9
:1005380014934FF4A8730224012615930CA80723DB
:1005480017930C961294169401F0D4FB0F2307937B
:100558004FF4A0530A9305214FF4805307A80B9337
:100568000894099501F076FDC02303A80396049327
:10057800059401F047FE18B070BD00BF0038024076
:100588000070004080B58CB000F010FBFFF7A0FFB2
:100598001422002107A8002403F050FF834B019484
:1005A8001A6B8348834F42F010021A631A6B02F0E9
:1005B80010020192019A02941A6B42F004021A6323
:1005C8001A6B02F004020292029A03941A6B42F028
:1005D80080021A631A6B02F080020392039A049451
:1005E8001A6B42F001021A631A6B02F001020492BC
:1005F800049A05941A6B42F002021A631A6B02F00D
:1006080002020592059A06941A6B42F008021A63D0
:100618001B6B03F00803069322460821069B00F093
:1006280039FC01221121644800F034FC01224FF406
:10063800E041624800F02EFC22464FF2FF0160487C
:1006480000F028FC0125082607A9594807960895AF
:1006580009940A9400F03EFB112307A95648079312
:1006680008954FF0050809940A9400F033FB0796A3
:1006780007A902265048089609940A94CDF82C80B8
:1006880000F028FB07A94F4807950897099400F040
:1006980021FB202307A9484807930995089400F0EF
:1006A80019FB042307A9454807930894099400F007
:1006B80011FB4FF4806307A94048079308960994F3
:1006C8000A94CDF82C8000F005FB4FF4E04307A90D
:1006D8003A480793089509940A9400F0FBFA4FF2F8
:1006E800FF0307A936480793089509940A9400F070
:1006F800F1FA07A92E4807960897099400F0EAFA34
:100708003148324A324B846080E80C004FF4804311
:100718000361C46044618461C461046201F00EF83D
:100728002C482D4B84604FF4007580E828002B4B33
:1007380005614361C4608461C461046201F0A2F888
:100748002748284985614FF4827380E80A000A2304
:10075800C3628460C46004614461C4610462446229
:10076800846201F015FE2048204B84604FF4E13587
:1007780080E828000C25C460046145618461C46177
:1007880002F096F81A481B4B84604FF4165680E81E
:100798004800C460046145618461C46102F088F85E
:1007A80003F088FA03F0A6FAFCE700BF003802401D
:1007B800001002400000121000080240000402402D
:1007C800000C024000000240C80500200054004010
:1007D800A0860100B4060020003C0040007701001C
:1007E8001C06002000300140740600200044004030
:1007F80088050020004800400268034B9A4201D156
:1008080000F0EEB9704700BF0010004070470000CC
:1008180007B50E4B002100915A6C42F480425A648D
:100828005A6C02F480420092009A01911A6C42F0CC
:1008380080521A641B6C03F0805301930720019BBC
:1008480000F0F4F903B05DF804FB00BF0038024083
:1008580030B5044689B01422002103A803F0EEFD48
:100868002268144B9A4222D1134C14480025019552
:10087800236B43F002032363236B03F0020301930A
:10088800019B4FF4107303931223049301230593E0
:1008980003A90423079300F01DFA0295236C43F47F
:1008A80000132364236C03F400130293029B09B022
:1008B80030BD00BF00540040003802400004024030
:1008C80070B5044688B01422002103A803F0B6FDD1
:1008D80022681D4B9A4235D103F5FE33002400945B
:1008E8001A6C1A4842F400421A641A6C02F4004264
:1008F8000092009A01941A6B42F001021A631A6B73
:1009080002F001020192019A02941A6B42F0040269
:100918001A631B6B03F004030293029B0226102345
:10092800062503A903930496079500F0D3F94FF41D
:10093800A45303A9064803930496059406940795BF
:1009480000F0C8F908B070BD003C0040000002404B
:100958000008024010B5044688B01422002103A8FC
:1009680003F06CFD2268134B9A4220D103F58433BF
:10097800002101915A6C104842F480525A645A6C12
:1009880002F480520192019A02911A6B42F001021C
:100998001A631B6B03F001030293029BE02303938A
:1009A8000223049303A90523079300F093F908B0E1
:1009B80010BD00BF003001400000024010B51422F5
:1009C8008AB0044600210DEB020003F037FD2368CE
:1009D800274A934225D1274B2748002101911A6CB9
:1009E80042F400321A641A6C02F400320192019A3D
:1009F80002911A6B42F001021A631B6B03F00103A8
:100A08000293029B0C230593022306930123079369
:100A1800032308930723099305A900F05BF90AB09B
:100A280010BD164A9342FAD1124B15480021039182
:100A38001A6C42F480221A641A6C02F4802203921F
:100A4800039A04911A6B42F008021A631B6B03F0B5
:100A580008030493049B4FF4407305930223069301
:100A680001230793032308930723099305A9D4E7D0
:100A780000440040003802400000024000480040A6
:100A8800000C024030B5014689B00022362000F043
:100A9800DFF8362000F010F90025154B02951A6C86
:100AA800144C42F010021A641B6C03F010030293FA
:100AB80001A903A8029B01F087FB01F065FB0E4B1F
:100AC800236040F2E733E36040000C4BB0FBF3F0E7
:100AD8000138606020462561A56001F0B3FD20B9AA
:100AE800204601F093FC09B030BD0120FBE700BFB0
:100AF80000380240FC0600200010004040420F0071
:100B08007047FEE7FEE7FEE7FEE77047704770476D
:100B180070470000014801F08DBC00BFFC060020B2
:100B2800014800F0B3BA00BF0C0B002008B50A4B0F
:100B38001968024609B909491960186869460244E2
:100B48008A4206D903F032FA0C2303604FF0FF30D3
:100B580008BD1A6008BD00BF48050020E00D002050
:100B68000F49D1F8883043F47003C1F888300D4B31
:100B78001A68002042F001021A6098601A6822F090
:100B8800847222F480321A60074A5A601A6822F482
:100B980080221A60D8604FF000638B60704700BFF6
:100BA80000ED00E0003802401030002408B50B4B7F
:100BB8001A6842F400721A601A6842F480621A6075
:100BC8001A6842F480721A60032000F02FF800209F
:100BD800FFF758FFFFF71CFE002008BD003C02404D
:100BE800034A044B11681B780B441360704700BF1D
:100BF8003C07002004000020014B1868704700BF24
:100C08003C07002038B50446FFF7F6FF631C1CBFFD
:100C1800054B1B78054618BFE418FFF7EDFF401B8E
:100C28008442FAD838BD00BF04000020074AD368C0
:100C380023F4E0631B041B0C43F0BF63000243F47E
:100C4800003300F4E0600343D360704700ED00E038
:100C5800174B30B5DC68C4F30224C4F10703251D23
:100C6800042B28BF0423062D4FF0010505FA03F3D2
:100C780003F1FF338CBF033C00241940A14005FA5F
:100C880004F4013C2240002842EA01024FEA021221
:100C9800ADBF00F1604000F00F00064B00F5614069
:100CA800B5BFD2B2D2B21A5480F8002330BD00BF0B
:100CB80000ED00E014ED00E0002808DB4209012304
:100CC80000F01F0003FA00F0014B43F822007047C0
:100CD80000E100E02DE9F04F85B00B68DFF8AC814A
:100CE800684ADFF8AC91019300234FF0010E019C94
:100CF8000EFA03FE0EEA0406B64540F0AE804C68D4
:100D080024F01007022F16D14FEAD30A00EB8A0A03
:100D180003F0070BDAF820504FEA8B0B4FF00F0C5B
:100D28000CFA0BFC25EA0C0C0D6905FA0BF545EAE3
:100D38000C05CAF820504FEA430A0325D0F800B042
:100D480005FA0AF5ED4304F0030C0BEA050B0CFA5F
:100D58000AFC013F4CEA0B0C012FC0F800C011D867
:100D6800876807EA050BCF6807FA0AFC4CEA0B0705
:100D78008760476827EA0E0EC4F300179F4047EACA
:100D88000E074760C7683D408F6807FA0AF73D437A
:100D9800C560E50061D54FF0000BCDF80CB0D8F870
:100DA8004470394D47F48047C8F84470D8F8447007
:100DB80007F480470397039F23F0030707F1804751
:100DC80007F59C3703F0030CD7F808A04FEA8C0C02
:100DD8004FF00F0E0EFA0CFEA8422AEA0E0E43D070
:100DE80005F58065A84241D005F58065A8423FD049
:100DF80005F58065A8423DD005F58065A8423BD041
:100E080048453BD005F50065A84239D005F5806511
:100E1800A84214BF0825072505FA0CF545EA0E0572
:100E2800BD601568F74314F4803F0CBF3D4035435F
:100E38001560556814F4003F0CBF3D4035435560BC
:100E4800956814F4801F0CBF3D4035439560D56804
:100E5800A40254BF3D403543D5600133102B7FF4C5
:100E680044AF05B0BDE8F08F5D46D5E70125D3E76F
:100E78000225D1E70325CFE70425CDE70525CBE7F4
:100E88000625C9E7003C0140000002400038024046
:100E9800001402400AB1816170470904FBE72DE99B
:100EA800FF47044690F8B8029DF830709DF834E08A
:100EB800BDF838C0012828D0282000FB01400125B2
:100EC800002612F0800F84F8B85202F07F0908BF9C
:100ED800354680F83D6080F8383080F8391080F861
:100EE8003FE080F83A9080F83B5080F83C70A0F8DA
:100EF80040C0CDF808C08DE88040206801F0A8FE09
:100F080084F8B86204B0BDE8F0870220FAE790F8E8
:100F1800B832012B10B5044609D0012380F8B83245
:100F2800006801F01FFF002084F8B80210BD0220FD
:100F380010BD2DE9F04107468AB0002841D090F84D
:100F4800B932046803F0FF021BB980F8B82202F036
:100F5800D7FE032387F8B932E36B3C4613F480735A
:100F680054F8100B08BF3B6101F02EFD0FCC6D4605
:100F78000FC50FCC0FC594E8030085E8030007F1FF
:100F880004083E4698E80E00386801F0D7FC56F889
:100F9800100B012101F01EFD0FCE6D460FC50FCEBF
:100FA8000FC594E8030085E8030098E80E00386848
:100FB80001F0CEFD012387F8B93200200AB0BDE860
:100FC800F0810120FAE70000F0B5282404FB0104B1
:100FD8009DF81470069EBDF81C5084F83B2084F8D8
:100FE8003F306FB90327022B84F842702BD0BB42E5
:100FF80029D0012B31D1282303FB010300222AE049
:101008004FF0020E84F842E0032B26D801A454F8CE
:1010180023F000BF2D100008FF0F00084F10000834
:101028004F100008012F18D1BAB925B9282303FB9E
:10103800010383F85170282303FB010393F851201F
:101048004AB1022207E0282303FB0103D2B993F82F
:101058005140002CF5D183F84220282404FB0103D9
:10106800002283F8391019465E649D6483F85C2079
:10107800DA6483F85D203831027C0068BDE8F0400E
:1010880001F0D4BE93F85020DAE700BF2DE9F04F05
:10109800066887B00446304601F0FCFC012840F0A1
:1010A800B480206801F0F2FC002800F0AE802068CF
:1010B80001F0ECFC870248BF2368206844BF4FF466
:1010C80000125A6101F0E2FCC50248BF236820689B
:1010D80044BF4FF480125A6101F0D8FC400148BF68
:1010E8002368206844BF4FF080625A6101F0CEFC4B
:1010F800810748BF2368206844BF02225A6101F073
:10110800C5FC820010D5D6F8403423F02E03C6F86B
:101118004034204602F044FE0121206801F0BEFC64
:1011280023684FF000525A61206801F0AFFCC301F8
:1011380042D52568D5F840340493D5F84034059352
:10114800059B23F02E030593049B9F070DD5049B55
:10115800D80706D5AB6923F00053AB61204602F0EF
:101168001BFE059B43F002030593049B190719D541
:10117800059B43F008030593049B5A0750D5A169C2
:10118800022945D1049B206803F4C023B3F5802FBE
:1011980018BF012101F082FC204602F006FE20461D
:1011A80002F0FAFD049B9B0642BF059B43F0200317
:1011B8000593059BC5F84034206801F067FC0707D4
:1011C80005D5204602F0E4FD236808225A6120680C
:1011D80001F05CFC850112D5206801F0BEFD4FF0DE
:1011E800000A019006F5A06828274FF00209D346A7
:1011F800A3689A4523D323684FF000725A61206888
:1012080001F044FCC30600F1208207B0BDE8F08F6E
:10121800E368012B04BF4EF66022C5F80424BBE73F
:10122800204602F0C6FDD5F84034226823F02E038C
:10123800C5F84034936943F000539361B2E7019ACB
:101248000AF00F0322FA03F3D80740F18A80D8F88E
:101258000030206813F4004F5FFA8AF500F004812B
:101268006A0100F5A063D618B168490713D50421AF
:10127800B160F16841F00201F160B168890542D5B9
:10128800F368206843F00203F360294601F06AFD21
:101298004FF40073C7E0B168890602D52021B16018
:1012A800EBE7B168090715D5F168039341F002012E
:1012B800F16007FB05414FF0050E81F85DE0102154
:1012C800B1600821B1602946029201F04BFD029AF3
:1012D800039BD2E7B1684905CFD5F168039341F084
:1012E8000201F1602946029201F03CFD1021B16033
:1012F80007FB0541082081F85D004FF48061B1606B
:10130800039B029AB9E7B168C8073DD5216949B17D
:1013180007FB054E3069DEF84810C0F31200091AC1
:10132800CEF84C1007FB054E01208EF85D00CEF874
:1013380058B0B0609EF83F1011F0FD0F16D1F36859
:10134800206843F00203F360294601F00BFD1023E7
:10135800B36007FB054595F8503083F0010385F825
:1013680050300AF1010A08F1200841E70329F0D1B9
:10137800D15841F00051D1508EF85C000246294600
:10138800204602F011FDE4E7B168890736D5F16817
:1013980007FB054021F00201F16090F85D1001297A
:1013A8000CD180F85C1007FB0543C6F8089093F849
:1013B8005C202946204602F0F7FCD2E70529F0D048
:1013C800062901D0082914D107FB0541886D013091
:1013D8000328886583BF0420C1F858B081F85C00F1
:1013E80081F85C90D15821F0804141F00041D15002
:1013F800D9E70329D7D180F85C90F3E7B16811F0F9
:10140800800112D0F368206843F00203F36007FB01
:10141800054329469A6D01329A65062283F85D20B4
:1014280001F0A0FC8023B3609BE7B368DA0698D587
:1014380007FB054292F83F30032B0AD19165F36808
:10144800206843F00203F360294601F08BFC102367
:10145800E9E713F0FD03FAD193652369002BF6D170
:10146800032382F85D30EAE7690100F5A0628E186F
:10147800B36813F0040E06D00423B360F36843F096
:101488000203F3606DE7B36813F0200314D0202340
:10149800B36007FB054393F83D20012A7FF461AF51
:1014A80083F83DE083F85C90F36843F00203F3604F
:1014B800294601F057FC54E7D6F808E01EF0400F23
:1014C80011D007FB0542042182F85D10012182F842
:1014D8003D109365F36843F00203F360294601F079
:1014E80041FC40239FE7B36813F4007E05D0F368FE
:1014F80043F00203F3602946C8E6B368DB0711D559
:10150800F26807FB054342F00202C3F858E0294697
:10151800F260029301F026FC029B0122B26083F87C
:101528005D201EE7B3681B070ED50823B360F36878
:1015380043F00203F360294601F014FC07FB05455C
:10154800052385F85D300CE7B368DB0615D507FB86
:101558000543032283F85D2093F83D20C3F858B073
:101568002AB993F83C2012B9012283F83D20F36888
:1015780043F00203F360294667E7B3681B060CD5FE
:10158800F36843F00203F360294607FB054501F0C1
:10159800E9FB062385F85D3044E7B3685B050FD5A2
:1015A800F36843F00203F360294601F0DBFB1023E4
:1015B800B3604FF48063B36007FB05450823C0E7B9
:1015C800B36898077FF5CDAEF36807FB054023F0B5
:1015D8000203F36090F85D30012B0ED180F85C3087
:1015E80090F83F30023B012B3FF6DDAE90F85130CA
:1015F80083F0010380F85130D5E6032B02D180F83F
:101608005C90D0E6042BFAD0052B02D180F85C3030
:10161800C9E6062B02D0082B7FF4C5AE07FB0540B0
:10162800836D0133032B836584BF042380F85C300A
:101638008B5888BFC0F858B023F0804343F000436C
:1016480098BF80F85C908B50ADE62668B36923F0AC
:101658001003B361356AC5F34342022A29D1C5F3A1
:101668000A18B8F1000F24D005F00F05282707FB4A
:101678000547796CE9B14246304601F0F9F97B6CCF
:1016880043447B64FB6C4344FB6406F5A0666B0132
:101698009A1911690A4A0A405AB19A5922F08042A5
:1016A80042F000429A5197F8503083F0010387F8CE
:1016B80050302268936943F010039361A5E500BF99
:1016C8000000F81F38B590F8B832012B04460DD049
:1016D800012580F8B852006801F070F929462068A1
:1016E80001F016FA002084F8B80238BD022038BD8F
:1016F80090F8B832012B10B5044609D0012380F8C0
:10170800B832006801F044FC002084F8B80210BD2B
:10171800022010BD006801F0DDB9282303FB010198
:1017280091F85C007047282303FB0101C86C7047DF
:10173800006801F088BA006801F07ABA70B504460A
:1017480008B9012070BD90F83D3003F0FF021BB9C5
:1017580080F83C20FFF77CF82268242384F83D3089
:10176800136823F00103136000F00EFD6568414B18
:101778009D424DD8404B9842E3D922683F4953686F
:10178800B0FBF1F123F03F030B435360136A23F0DE
:101798003F03013119431162D169364B21F44F419E
:1017A8009D4221F0FF0100F1FF3048D86D00B0FBE9
:1017B800F5F00130C0F30B03042B38BF04230B43AF
:1017C800D3611168206AE36921F0C00103430B4328
:1017D80013609168E068236921F40341034321F011
:1017E800FF010B439360D168A069636921F0FF0191
:1017F80003430B43D360136843F0010313600020D5
:101808002023206484F83D30206384F83E0070BDB6
:101818001B4B984295D92268184E5368B0FBF6F6D0
:1018280023F03F0333435360136A4FF496717143B7
:1018380023F03F034FF47A76B1FBF6F1A9E7A368EA
:1018480053B905EB4503B0FBF3F0431CC3F30B039B
:101858006BB143F40043B2E719236B43B0FBF3F0D9
:10186800431CC3F30B0313B143F44043A7E701231D
:10187800A5E700BFA08601007F841E0040420F003C
:10188800FF083D00F8B50446002841D090F84130E3
:1018980003F0FF022BB9424B80F840204363FFF767
:1018A8000FF80221226884F84110D36923F47B637E
:1018B80023F00F03D361636911628B4231D0E3686F
:1018C800002BA3680CBF102520250120202B98BFD2
:1018D8006D0000F02FFD23696169B3F5007F1BD10E
:1018E800E3680A22B3B1AB00B0FBF3F353430A2217
:1018F800B3FBF1F30533B3FBF2F303F00102120279
:101908005B08991EFD290ED9636C43F010036364CC
:101918000120F8BDEB00E7E70A23B0FBF5F04343ED
:10192800E5E70022EDE71343226921686668E56868
:10193800A069DFF87CE013430B62A368CF6946EA2D
:10194800030242F400622A43024307EA0E073A43BD
:10195800CA61226A012A1DD1124A6263124F134AD0
:10196800B94218BF4FF040222B43D16901EA0E015A
:10197800D16102211162D76943F40063034336F44D
:10198800007143EA07030CBF4FF4807100219BB23A
:101998000B43D36100200123606484F84130F8BD13
:1019A800C3190008C11A000800380040003400407C
:1019B80040F0FFFF7047704770471FB503689A688B
:1019C800019290F84120042A044636D1019AD107A1
:1019D80017D55A68520614D5C26AD96822F8021B6C
:1019E800C262428E013A92B24286428E92B242B9A5
:1019F8005A6822F060025A60012380F84130FFF7EC
:101A0800DAFF019B590618D523685A68920614D53F
:101A18005A6822F060025A6000220292DA68029242
:101A28009B680293029B012384F84130636C43F066
:101A3800020363642046FFF7BFFF94F84130032B8D
:101A480036D1019B9B0719D522685368180615D50E
:101A5800636A33F8021BD1606362638D013B9BB2FA
:101A68006385638D9BB24BB9536823F0A003536021
:101A7800012384F841302046FFF79CFF019B19079A
:101A880016D523685A68920612D55A6822F0A00221
:101A98005A60002203929B680393039B012384F8F6
:101AA8004130636C43F0040363642046FFF784FF0E
:101AB80004B010BD7047000010B502688B499368E8
:101AC80086B0044600938A4B8A4218BF4FF04023E1
:101AD800996801915168029159680391416831F4FC
:101AE800007140F09080009B99071AD5029B1B0655
:101AF80017D5436A991C1B884162D360438D013B0B
:101B08009BB24385438D9BB25BB9536823F0A00316
:101B18005360438E9BB223B9012380F84130FFF70D
:101B2800C9FF019BD80722D5039B59061FD5E26A36
:101B380020686E49931CE3626D4B884218BF4FF0D2
:101B48004023D9681180628E013A92B26286628E11
:101B580092B262B95A6822F060025A60638D9BB2F1
:101B68002BB9012384F841302046FFF7A3FF019BDE
:101B78005A0622D5039B9B061FD523685B495C4AFE
:101B88008B4218BF4FF040222046516821F0600177
:101B980051605A6822F0A0025A6000220492DA6862
:101BA80004929B680493049B012384F84130636C7E
:101BB80043F002036364FFF7FFFE009B180720D57C
:101BC800029B99061DD5236848495A6822F0A0024D
:101BD8005A60474A8B4218BF4FF04022516821F0A3
:101BE80060015160002205929B680593059B0123C3
:101BF80084F84130636C43F0040363642046FFF7C4
:101C0800DBFE06B010BD019A92071AD5039A110699
:101C180017D5426A911C12884162DA60428D013AF6
:101C280092B24285428D92B25AB95A6822F0A00205
:101C38005A60438E9BB223B9012380F84130FFF7E5
:101C480039FF009BDA071CD5029B5B0619D5E36AAE
:101C58009A1CE2622268D1681980638E013B9BB2AC
:101C68006386638E9BB263B9536823F06003536045
:101C7800638D9BB22BB9012384F841302046FFF7CE
:101C880019FF009B58061BD5029B990618D5226898
:101C98001649536823F060035360154B8A4218BFF6
:101CA8004FF0402320465A6822F0A0025A600123D0
:101CB80084F84130636C43F002036364FFF77CFEF1
:101CC800019B1A079DD5039B9B069AD52268074955
:101CD800074B8A4218BF4FF04023596821F0A001F2
:101CE8005960536823F06003536080E70038004070
:101CF800003400402DE9F341044618B9012002B030
:101D0800BDE8F0810368DD0710D42368980758D42C
:101D180023681A0700F19A8023685B0700F1B880EE
:101D2800A269002A40F019810020E8E7A64B9A68CA
:101D380002F00C02042A07D09A6802F00C02082A62
:101D48000AD15B68590207D59F4B1B689A03DCD5FB
:101D58006368002BD9D1D1E763689B4DB3F5803F09
:101D680011D12B6843F480332B60FEF745FF964D65
:101D780006462B689B03C8D4FEF73EFF801B6428E9
:101D8800F7D90320BBE7B3F5A02F04D12B6843F4A0
:101D980080232B60E5E72A6822F480322A602A68CB
:101DA80022F480222A60002BDFD1FEF725FF0646A9
:101DB8002B689F03A9D5FEF71FFF801B6428F7D95E
:101DC800DFE7814B9A6812F00C0F07D09A6802F08F
:101DD8000C02082A11D15B685E020ED47A4B1A688D
:101DE800950702D5E268012A88D11A68216922F08C
:101DF800F80242EAC1021A608AE7E268734BB2B19C
:101E080001221A60FEF7F8FE6F4D06462B68980708
:101E180007D52B68226923F0F80343EAC2032B6035
:101E280076E7FEF7E9FE801B0228EFD9A9E71A60DA
:101E3800FEF7E2FE644D06462B6899077FF568AF0A
:101E4800FEF7DAFE801B0228F6D99AE76269604B32
:101E58007AB101221A60FEF7CFFE5B4D06466B6F22
:101E68009F073FF559AFFEF7C7FE801B0228F6D93A
:101E780087E71A60FEF7C0FE534D06466B6F98075A
:101E88007FF54AAFFEF7B8FE801B0228F6D978E73F
:101E98004D4B1A6C12F0805228D101921A6C42F004
:101EA80080521A641B6C03F080530193019B012636
:101EB800484D2B68D9051BD5A368434D012B27D165
:101EC8002B6F43F001032B67FEF796FE3E4D074646
:101ED80041F288382B6F9B0739D5002E3FF420AF8D
:101EE800394A136C23F08053136419E70026DFE79F
:101EF8002B6843F480732B60FEF77EFE07462B6841
:101F0800DA05D9D4FEF778FEC01B0228F7D938E7DE
:101F1800052B04D12B6F43F004032B67D0E72A6FFE
:101F280022F001022A672A6F22F004022A67002B96
:101F3800CAD1FEF761FE41F2883807462B6F980731
:101F4800CBD5FEF759FEC01B4045F7D919E7FEF778
:101F580053FEC01B4045BDD913E71B4DAB6803F0CA
:101F68000C03082B3FF4CAAE1B4E0023022A336031
:101F780034D1FEF741FE07462B6899011ED4226A28
:101F8800E3691343626A43EA8213E26A43EA02633B
:101F9800A26A0D4C5208013A43EA02436B600123DE
:101FA8003360FEF729FE054623689A013FF5BCAE6B
:101FB800FEF722FE401B0228F6D9E2E6FEF71CFED9
:101FC800C01B0228D8D9DCE600380240000047428E
:101FD800800E47420070004060004742FEF70CFE4A
:101FE80004462B689B017FF59FAEFEF705FE001B9C
:101FF8000228F6D9C5E600BF134908B58B6803F077
:102008000C03042B03D0082B03D0104808BD10483C
:1020180008BD4A684B68496813F4800314BF0C482C
:102028000A48C1F3881118BF002302F03F02A1FB40
:102038000001FEF7C5F8044B5B68C3F301430133A5
:102048005B00B0FBF3F008BD003802400024F40048
:1020580000127A002DE9F0410D46044610B901201E
:10206800BDE8F081444B1A6802F00F028A4228D377
:1020780021688F072DD4C80740D43F4B1A6802F057
:102088000F02954266D3226851076CD4130707D50F
:102098003A4A2169936823F4604343EAC103936091
:1020A800FFF7AAFF354B364A9B68C3F30313D35C8B
:1020B800D840344B18600020FEF7E4FC0020BDE84F
:1020C800F081CAB21A701B6803F00F039942C6D197
:1020D800CEE72A4B11F0040F1EBF9A6842F4E05273
:1020E8009A600E0742BF9A6842F460429A609A6802
:1020F800A06822F0F00202439A60BCE762681F4BB6
:10210800012A1DD11B6813F4003FA8D01B4EB368E9
:1021180023F003031343B360FEF76EFD41F28838E2
:102128000746B368626803F00C03B3EB820FA4D0D0
:10213800FEF762FDC01B4045F3D90320BDE8F081DE
:10214800911E01291B6802D813F0007FDDE713F008
:10215800020FDAE7EAB21A701B6803F00F039D4218
:102168007FF47DAF8FE70549E0688B6823F4E0537F
:1021780003438B608AE700BF003C024000380240FE
:10218800CC46000800000020044B054A9B68C3F3B6
:102198008223D35C034A1068D84070470038024055
:1021A800DC46000800000020044B054A9B68C3F386
:1021B8004233D35C034A1068D84070470038024065
:1021C800DC460008000000200F2303600B4B9A68D0
:1021D80002F0030242609A6802F0F00282609A6894
:1021E80002F4E052C2609B68DB0803F4E053036129
:1021F800034B1B6803F00F030B6070470038024065
:10220800003C0240036813F0050FF7B5054605D1F9
:10221800286810F0020028D103B0F0BD414C424EAE
:1022280000232360FEF7E8FC074633681B0115D43A
:10223800AB686A681B0743EA8213C6F88430012337
:102248002360FEF7D9FC384C064623681801DFD412
:10225800FEF7D2FC801B0228F7D904E0FEF7CCFC7D
:10226800C01B0228E1D90320D6E7002301932E4B97
:102278002E4C1A6C42F080521A641B6C03F0805387
:102288000193019B236843F480732360FEF7B4FC39
:1022980006462368D9051BD5234C236F13F44073D6
:1022A8001CD1EB6803F44072B2F5407F1E4A34D16A
:1022B800916823F0704021F4F81120F44070014334
:1022C8009160116FC3F30B030B4313670020A3E75F
:1022D800FEF792FC801B0228DBD9C4E7EA6802F407
:1022E80040729342DDD0236F114A0121116023F41B
:1022F8004073002111602367236FDA07D1D5FEF7F9
:102308007BFC41F288370646236F9B07C9D4FEF74A
:1023180073FC801BB842F7D9A5E7916821F4F8113E
:10232800CEE700BF68004742003802400070004016
:10233800400E4742012820D1114B9A6812F400023E
:1023480004D0012A0F4818BF002070475A680C496A
:1023580058685302D1F884204CBF0B4B0B4B00F04C
:102368003F00B3FBF0F3D1F88400C2F38812534363
:10237800C0F30270B3FBF0F070470020704700BF55
:10238800003802400080BB0000127A000024F400EC
:1023980010B50446002836D00023836290F85130E7
:1023A80003F0FF021BB980F85020FEF7D3FA21682A
:1023B800A068A269022384F851300B6823F0400317
:1023C8000B6063680343E068034320690343606963
:1023D8000343E0690343206A0343A06A034302F40A
:1023E800007003430B60120C636A02F004021A4384
:1023F8004A60CB6923F40063CB6100200123606548
:1024080084F8513010BD012010BD70470368DA68A8
:1024180042F00102DA609A6802F00702062A1EBF3B
:102428001A6842F001021A6000207047704770472E
:102438007047704703681A69910710B504460ED5AE
:10244800DA6892070BD56FF002021A619B690122C4
:102458009B07027777D0FFF7EAFF002323772368EB
:102468001A69500710D5DA6851070DD56FF00402C4
:102478001A619B69022213F4407F2277204668D0B4
:10248800FFF7D5FF0023237723681A6912070FD5B2
:10249800DA6810070CD56FF008021A61DB690422AC
:1024A8009907227720465AD0FFF7C1FF00232377E8
:1024B80023681A69D20610D5DA68D0060DD56FF0F0
:1024C80010021A61DB69082213F4407F2277204644
:1024D8004BD0FFF7ACFF0023237723681A69D10795
:1024E80008D5DA68D20705D56FF001021A612046CF
:1024F800FEF782F923681A69100608D5DA6811060A
:1025080005D56FF080021A61204600F0B6F82368FE
:102518001A69520608D5DA68500605D56FF04002E8
:102528001A612046FFF785FF23681A69910622D5AC
:10253800DA6892061FD56FF0200220461A61BDE8BE
:10254800104000F099B8FFF771FF2046FFF770FFC1
:1025580083E7FFF76BFF2046FFF76AFF92E7FFF775
:1025680065FF2046FFF764FFA0E7FFF75FFF2046FF
:10257800FFF75EFFAFE710BD304A0368904212D004
:10258800B0F1804F0FD0A2F57C4290420BD002F5FB
:102598008062904207D002F58062904203D002F533
:1025A8007842904219D14A6823F070031343234AB2
:1025B800904229D0B0F1804F26D0A2F57C429042BB
:1025C80022D002F5806290421ED002F580629042CD
:1025D8001AD002F57842904216D0194A904213D088
:1025E80002F5806290420FD002F5806290420BD0D3
:1025F800A2F59832904207D002F58062904203D04B
:1026080002F58062904203D1CA6823F440731343F1
:102618004A6923F08003134303608B68C3620B6825
:102628008362064B984203D003F58063984201D138
:102638000B69036301234361704700BF0000014039
:102648000040014010B50446A0B190F83D3003F0B9
:10265800FF021BB980F83C20FFF7D7FE022384F85D
:102668003D302068211DFFF787FF012384F83D30A6
:10267800002010BD012010BD704770472DE9F047BC
:102688000668C2683369C16923F440531343336150
:10269800044683680069F2680343606922F41642BD
:1026A800034322F00C020B431343F3607369A269DE
:1026B80023F440731343B1F5004F73617A4B7CD117
:1026C8009E4203D003F580639E4244D1FFF76CFD20
:1026D800192505FB00F360684FF064094000B3FB5F
:1026E800F0F3B3FBF9F34FEA0318FFF75DFD6368F6
:1026F80068435B00B0FBF3F7FFF756FD6368684378
:102708005B00B0FBF3F3B3FBF9F309FB1373DB00D6
:102718003233B3FBF9F35B0003F4F877FFF744FDBA
:10272800626868435200B0FBF2FAFFF73DFD636848
:1027380068435B00B0FBF3F3B3FBF9F309FB13A3A6
:10274800DB003233B3FBF9F303F0070343443B44A4
:10275800B360BDE8F087FFF717FD192505FB00F307
:1027680060684FF064094000B3FBF0F3B3FBF9F382
:102778004FEA0318FFF708FD636868435B00B0FB86
:10278800F3F7FFF701FD636868435B00B0FBF3F301
:10279800B3FBF9F309FB1373DB003233B3FBF9F333
:1027A8005B0003F4F877FFF7EFFC626868435200B8
:1027B800B0FBF2FAFFF7E8FCB9E79E4202D03B4BC8
:1027C8009E4240D1FFF7F0FC676819254FF0640975
:1027D80005FB00F3BF00B3FBF7F3B3FBF9F31F01ED
:1027E800FFF7E2FC636868439B00B0FBF3F8FFF770
:1027F800DBFC636868439B00B0FBF3F3B3FBF9F3BE
:1028080009FB13831B013233B3FBF9F303F0F00820
:10281800FFF7CAFC626868439200B0FBF2FAFFF760
:10282800C3FC636868439B00B0FBF3F3B3FBF9F3A5
:1028380009FB13A31B013233B3FBF9F303F00F03B6
:1028480043EA080383E7FFF79FFC676819254FF001
:10285800640905FB00F3BF00B3FBF7F3B3FBF9F31F
:102868001F01FFF791FC636868439B00B0FBF3F816
:10287800FFF78AFC636868439B00B0FBF3F3B3FB84
:10288800F9F309FB13831B013233B3FBF9F303F0AC
:10289800F008FFF779FC626868439200B0FBF2FA2F
:1028A800FFF772FCBDE700BF0010014000140140B3
:1028B80010B5044640B390F8393003F0FF021BB955
:1028C80080F83820FEF77AF82268242384F8393013
:1028D800D36823F40053D3602046FFF7CFFE236864
:1028E8001A6922F490421A615A6922F02A025A613E
:1028F800DA6842F40052DA6000202023E06384F8AA
:10290800393084F83A3010BD012010BD0A4B013B24
:1029180001D1032070470269002AF8DA0369064AE0
:1029280043F001030361013AF3D0036913F0010393
:10293800F9D11846704700BF410D030084B038B57F
:1029480005AD85E80E000A9B012B044625D1836B53
:1029580023F480338363C36823F4840323F04003A0
:10296800C360C36823F44013C360119B012B02BFEB
:10297800C36843F48013C360FFF7C8FF089B012BAB
:1029880007D1A36843F00603A360A36843F02003BC
:10299800A360BDE8384004B07047C36843F0400303
:1029A800C360FFF7B3FF0E9B23B9A36B43F48033D7
:1029B800A363E3E7A36B23F48033F9E7836843F069
:1029C8000103836000207047836823F0010383605C
:1029D8000020704708B5C368012923F0C043C360CD
:1029E80008D1C36843F00053C3603220FEF70AF9E8
:1029F800002008BD19B9C36843F08043F4E70120FB
:102A080008BD0000890141F02001064A0161013A30
:102A180005D0036913F02003F9D118467047032045
:102A2800704700BF410D03001023064A0361013AB5
:102A380005D0036913F01003F9D118467047032035
:102A4800704700BF410D030010B59DF808404CB910
:102A5800033300EB023023F0030300F580500B44EE
:102A6800994201D1002010BD51F8042B0260F7E70C
:102A7800033222F003020A4400F58050914201D14A
:102A880008467047036841F8043BF7E742698069E4
:102A980010407047406900F001007047D0F80034DA
:102AA80023F0030310B5C0F80034D0F8004401F057
:102AB80003032343012900F58062C0F8003404D1E0
:102AC8004BF680335360002010BD0229FBD141F240
:102AD8007073F7E737B500250195D0F840340193B6
:102AE800019B23F02E030193019B43F4807304465A
:102AF800C0F840346420FEF785F8019B23F4807306
:102B0800C4F840340A20FEF77DF8284603B030BDEB
:102B180082B000230193D0F840340193019B23F045
:102B28002E030193019BDA0406D4012902BF019BFD
:102B380043F48053C0F84034019BDB0405D521B928
:102B4800019B23F48053C0F84034002002B0704742
:102B580084B038B5044605A880E80E000023C4F800
:102B6800003EA36B43F40013A363A36B23F4002379
:102B7800A363A36B23F48023A363E36BDA053FD538
:102B8800079B032BD4F800343CD143F00403C4F86A
:102B9800003410212046FFF735FF2046FFF744FF99
:102BA8000023069904F5A0624FF0FF301D468B42C2
:102BB8002BD101212046FFF7ABFFC820FEF722F8F2
:102BC8000023A3614FF0FF336361E36BDB0521D57D
:102BD8004FF40073636203F18073A362114BC4F86E
:102BE8000031089B1BB9A36943F01003A361A269D4
:102BF8000D4B1343A361BDE83840002004B0704773
:102C0800D4F8003423F00403C1E790600133D560A1
:102C18002032CCE78023636203F5C003A362034B31
:102C2800DDE700BF0003E000080020A3E00040004B
:102C380082B000230193D0F8403401930198C0F387
:102C4800414002B0704700F58060806880B27047EC
:102C58002DE9F04100EB411707F5A0649DF81C60D1
:102C680005464FF0FF30A0604FFA82F805F5806CFA
:102C780001F00F0E032E6CD8DFE806F00261024C5B
:102C880040F29D41B8F1000FE16003DAE16841F4D8
:102C9800807105E0E96BC90542D5E16841F0600142
:102CA800E1600020DCF81840012101FA0EF121430F
:102CB800CCF81810A969B8F1000F41F00071A961AA
:102CC800B4BF4FF400440024BDF820509DF81810FC
:102CD8009B0503F0FE53C5F30A05D20202F4F04245
:102CE8002B431343B20402F44022022943EA0203AD
:102CF8000CBF4FF40031002123430B43032EC7F8C8
:102D0800003528D1D7F8003543F00053C7F800350F
:102D1800BDE8F08140F29D61B8F1000FE160B5DBDC
:102D2800DCF81800012101FA0EF10143CCF8181063
:102D3800A969002041F00071A9610446C4E740F286
:102D48002521B8F1000FE160EADAE16841F4C071C9
:102D5800A6E70120A6E7BDE8F08100F5806040699C
:102D680080B2704700EB411101F5A062D1F800353F
:102D780013F4802FD1F8003543F08043C1F80035B3
:102D88001ED1C36A13F47F0FD1F8003537D123F071
:102D98000043C1F80035D1F8003543F00043C1F8CD
:102DA8000035D1F8003523F40043C1F8003540F26E
:102DB800E933013B02D011680029FADB0020704793
:102DC800D0F8103413F47F0FD1F8003517D123F061
:102DD8000043C1F80035D1F8003543F00043C1F88D
:102DE8000035D1F8003523F40043C1F8003540F22E
:102DF800E933013BE2D011680029FADBDEE743F052
:102E08000043C1F80035D9E700EB4111064AC1F883
:102E18001025D1F8003523F0804343F00043C1F872
:102E280000350020704700BF000008802DE9F341FD
:102E3800C36BDB05164604464A7817D50D79ADB93C
:102E48004EB94B79012B11D11146FFF7DDFF002058
:102E580002B0BDE8F081012E08D100EB4213D3F88F
:102E68000C0520F06000C3F80C054D7108690028B6
:102E780066D00B8901381844B0FBF3F080B2B0F586
:102E8800807F03D91B020B614FF48070CF7817B194
:102E98000B8943430B6191F80AE00B694FEA4E7EB8
:102EA800C3F312080EF0C04E4EEA080EDFF8DC80BD
:102EB80004EB421508EAC0404EEA0000C5F81005C8
:102EC80016B1C868C5F8140504F5806EDEF8080068
:102ED800D5F800C52CF0005CC5F800C5C043D5F88E
:102EE80000C5400700F0005040EA0C00C5F8000596
:102EF8002548D5F800C5C0F800C0D0F800C02CF0AF
:102F0800804CC0F800C0D0F800C0DFB14CF4004CD1
:102F1800C0F800C0D0F800C04CF0004CC0F800C0A9
:102F28000068C5F80005002E91D1002F8FD1002B25
:102F38008DD0C879032813D8DFE800F0071A071ADC
:102F48000120A3E72CF4004CE2E7E06ADD1CC5F39E
:102F58008F0580B2854203D9A06940F02000A061A6
:102F6800002000909BB2C9682046FFF76DFD6EE710
:102F7800DEF81000DD1CC5F38F0580B28542EFD95D
:102F8800A06940F08060EAE74C0500200000F81FC7
:102F9800836823F0010310B5102104468360FFF70E
:102FA80031FD2046FFF740FD04F5A06304F5E0601D
:102FB8001A46116821F0802141F0804142F8201B17
:102FC8009042F6D10020196821F4004141F04041B7
:102FD80019600130B0F57A7F02D819680029F8DB4A
:102FE80020339A42EFD14FF0FF33C4F814346361B1
:102FF800A36843F00103A360002010BD00207047C0
:1030080038B5D0F87833DC692178054639B100F055
:1030180017FE2178284600F02FFE00232370217B1D
:1030280041B1284600F00CFE217B284600F024FE22
:1030380000232373617B41B1284600F001FE617BC8
:10304800284600F019FE00236373D5F87833D86951
:1030580028B100F0DDFFD5F878330022DA610020CE
:1030680038BDF0B5022285B001231146054600F0AF
:10307800B2F9FF28064602D1022005B0F0BD01468C
:10308800284600F09FF95020D5F8787300F0B8FF73
:103098001A2303FB0656F86196F84A331A0642BF0C
:1030A8004370B6F84C33438104464178284600F013
:1030B800CCFD01462070608902900320019095F8AC
:1030C8001D0395F81C3362780090284600F0A9FD8E
:1030D80000222178284600F024FF00231A460A21FE
:1030E800284600F078F9FF28C6D01A2303FB0051C0
:1030F80003FB005091F84A2390F85233B1F84C136F
:1031080012F0800F0DBFA273E2736183218313F065
:10311800800F08BFA373B0F85423A17B18BFE373D3
:10312800284614BF6283228300F08FFDE17B607321
:10313800284600F08AFD2073208B0290022695F81D
:103148001D0395F81C33A27B617B019600902846ED
:1031580000F067FD608B029095F81D0395F81C330D
:10316800E27B217B019600900026284600F059FD5D
:103178003246617B84F84C60284600F0D2FE324625
:10318800217B284600F0CDFE304676E738B5D0F8EA
:103198007833D969A12303742123437407220023B8
:1031A80043828382C2824031044600F0C9FA054650
:1031B80020B9D4F8C833022120469847284638BD9C
:1031C800704770477047D0F8783373B5DC6994F866
:1031D8004C300546042B3DD8DFE803F003061742C0
:1031E800A600002002B070BD2123A16C0374202327
:1031F80043740722002343828382C28200F0A0FA2C
:1032080050BB022384F84C3024E0A123037421230B
:1032180043740722002343828382C28204F140015F
:1032280000F08EFAC0B9626CA36C84F84C0002F00E
:10323800FF115A6802F0FF1291420BD194F8451021
:103248005A79914206D1226C1B689A4202D12846CB
:10325800FFF7B8FF0120C5E70128FBD00423D1E719
:1032680094F84D10012921D002292ED0D5F87833B1
:10327800DE6996F84E30032B45D0042BEAD1317B1A
:10328800284600F03DFE0128E4D1317B284600F0B5
:10329800F3FDB36A984240D0728B90423DD91B1A15
:1032A800B362336A18443062032333E0606A228BC6
:1032B800637B0091904298BF82B2E169284600F092
:1032C80089FC022384F84D30D0E7617B00F018FEBA
:1032D800012815D1636A228B934283BF9B1A6362CC
:1032E800E36900238ABF9B186362E361636A0BB1D9
:1032F8000123E7E784F84D302846FFF761FFB5E77B
:103308000228B3D1F4E7337B728B316A284600F088
:1033180078FC042386F84E309CE7002386F84E306C
:103328002846FFF74EFF95E7002100F00DFC002826
:1033380090D184F84C008DE700F5607300F56F724A
:10334800002143F8041B9342FBD100F58E7200F56F
:103358004771002302F8013B9142FBD10122402131
:10336800037043708270C0F8BC3302768171437673
:1033780080F81C3380F81D230020704738B50D46AF
:10338800044680B1002380F8C023C0F87833C0F821
:103398007C33FFF7D1FF0DB1C4F8C853204600F0C5
:1033A8000DFD002038BD022038BD49B1D0F87C336E
:1033B80033B90122C0F87C23C0F87413184670474B
:1033C8000220704790F838338B4286BF80F820136C
:1033D80000200220704770B5002490F843638E42A5
:1033E800E5B201D0FF290BD190F84463964201D091
:1033F800FF2A05D190F845639E4207D0FF2B05D0E0
:103408000134022C00F11A00E7D1FF25284670BDCF
:1034180010B5044600F0F8FC0121204600F074FDC8
:10342800002010BD30B587B002238DF8173090F812
:103438001F33044633B9027822B10278032A1CBF2D
:103448000322027022780B2A18D8DFE812F00C0049
:103458001A001F00210117004F000701C600D00005
:10346800DA00E700180194F81E333BB10123C820A5
:10347800237000F065FD204600F0F0FC002007B046
:1034880030BD012BFAD102232370F7E7642000F046
:1034980057FD204600F0D4FC0523237084F81D0353
:1034A8000021204600F0D1FB80216071204600F009
:1034B800CCFBA27994F81C332071014602920025B6
:1034C80094F81D23009201958022204600F0A9FB64
:1034D800A279029294F81D23009294F81C33617922
:1034E80001952A46204600F09CFBC7E76378072B26
:1034F800C4D8DFE803F004151E3038414F5D0821B9
:10350800204600F0FAF905460028B7D1012394F8BF
:1035180029236370217994F81C33A2710292CFE7B2
:103528001221204600F0E9F90028A7D10223637090
:10353800A4E70121204600F0DDFA054600289DD1C8
:10354800022000F0FDFC03220123627084F81C3382
:103558002179A279E2E70921204600F016FA00282D
:103568008CD10423E3E7B4F83613204600F00DFAB3
:10357800002883D10523DAE794F8301341B1FF23FB
:1035880004F58E72204600F08EFA00287FF476AF9C
:103598000623CCE794F8311341B1FF2304F58E726A
:1035A800204600F080FA00287FF468AF0723BEE7C2
:1035B80094F8321341B1FF2304F58E72204600F0CF
:1035C80072FA00287FF45AAF002384F8203394F865
:1035D8003333012B09D0072356E7D4F8C833002B1F
:1035E8003FF44CAF01212046984708234CE794F854
:1035F8003913204600F08CFA00287FF43FAF0923E6
:1036080042E794F83B339B0606D50121204600F09B
:103618008DFA00287FF432AF0A2335E7D4F87C33DB
:10362800002B3FF42BAF0023C4F87833D4F874335D
:1036380094F843231979914208BFC4F87833D4F831
:103648007833D3B19B6820469847B0B906232370D6
:103658000321D4F8C833204698470FE7D4F87833C5
:103668005BB11B69204698478DF817009DF8173005
:10367800002B7FF403AF0B2306E70D2304E7D4F8F0
:103688007833002B3FF4FAAE5B6920469847F5E69D
:103698002046FFF751FED4F87833002B3FF4EEAE06
:1036A800DB68204698470023C4F87833E6E6C0F87C
:1036B800BC137047D0F8BC230132C0F8BC23027891
:1036C8000B2A04D1D0F878330BB19B69184770479F
:1036D800012380F81F337047002380F81F33704799
:1036E800027808B54AB9D0F8C833012280F81E23F9
:1036F8000BB104219847002008BD90F81F23012A28
:1037080004BF02220270F6E710B5044600F08AFBF7
:103718002179204600F0B0FA6179204600F0ACFA31
:10372800002384F81E33D4F8C83313B1052120468A
:103738009847204600F068FB03232370002010BD43
:1037480013B504468078012803D0022808D0012048
:1037580004E00223A160A2812076A37002B010BD0C
:10376800237E013B01210A2BF1D8DFE803F0060F85
:103778002B36404C646F808C9500627904F11001FF
:10378800204600F0EFF902232376E0E7617920462E
:1037980000F0B6FB01280FD1E28A94F910302AB163
:1037A800002B01DA0323EFE70523EDE7002B01DA0D
:1037B8000923E9E70723E7E7042801D00228C6D14F
:1037C8000B23E1E7D4F8BC33E381A2892379A1680C
:1037D800204600F0EFF90423D6E72179204600F0CF
:1037E8008FFB0128E4D0052815D00428E7E7637982
:1037F8000091A289A168204600F0C5F9D4F8BC332D
:10380800E3810623C0E76179204600F079FB0128AF
:10381800D0D0052805D10123A370002323760320E7
:103828009CE70228C0D0042891D10B2323760123DA
:10383800A370022092E7002223791146204600F067
:10384800B9F9D4F8BC33E38108239DE721792046F0
:1038580000F056FB012804D101230020A370207634
:103868007CE70428ACD005287FF471AFD3E70022A9
:10387800637900912046114600F085F9D4F8BC33ED
:10388800E3810A2380E76179204600F039FB0128AB
:10389800E2D00228A9D18BE7637E0133DBB2022B89
:1038A800637606D8204600F0BDFA01232376A3707C
:1038B8004DE7D4F8C833062120469847002363769D
:1038C800B5E730B48478BDF80850012C10D161F008
:1038D8007F04047402F47F44B4F5407F42824FF0C1
:1038E80006010CBF40F20942002241748282C5825F
:1038F8002A46194630BCFFF723BF37B500F58E734B
:103908000D4600914FF4807200210446FFF7D9FF5D
:10391800C8BB94F81C3184F8223394F81D3184F81C
:103928002333B4F81E31A4F8243394F8203184F8F2
:10393800263394F8213184F8273394F8223184F817
:103948002833082D94F8233184F829331BD9B4F887
:103958002431A4F82A33B4F82631A4F82C33B4F867
:103968002831A4F82E3394F82A3184F8303394F8A7
:103978002B3184F8313394F82C3184F8323394F8AD
:103988002D3184F8333303B030BD2DE9F74300F10E
:103998001C050E4600912B464FF400720021044688
:1039A800FFF78FFF48BB237F84F83433637F84F8A5
:1039B800353394F8203084F8383394F8213084F87B
:1039C800393394F8223084F83A3394F82330B4F831
:1039D8001EE084F83B33092E94F82430A4F836E32B
:1039E80084F83C3309D927462B46064609224FF06E
:1039F8001A0C022E01D0964502D803B0BDE8F08318
:103A080019780B440A445978042992B2F1D11978EB
:103A180087F83E13597887F83F13997887F8401349
:103A2800D97887F84113197987F84213597987F8B3
:103A38004313997987F84413D97987F84513197A84
:103A480087F846130CFB06F8002197F842538D427D
:103A580002D801361A37CCE79645FAD91D782B4497
:103A68002A445D78052D92B2EFD14D1C08EBC501B3
:103A7800214493F8009081F8409393F8019081F8DD
:103A8800419393F8029081F8429393F8039081F858
:103A98004393B3F80490A1F8449393F8069081F8FF
:103AA8004693E9B2D1E7F7B500F58E7514461F467F
:103AB800009341F440722B4600210646FFF701FFB0
:103AC80078B996F81D31032B0BD196F81C31023BBF
:103AD800BB4228BF3B469BB20246934203D8002311
:103AE800237003B0F0BDA9180232897804F8011BCD
:103AF80092B2F2E78378012B06D1002305220374E2
:103B0800427441828382C38200221146FFF718BEA5
:103B18008378012B06D10023092203744274418261
:103B28008382C38200221146FFF70ABE8378012BE5
:103B380006D1002303220374427441828382C38224
:103B480000221146FFF7FCBD8378012B06D1022223
:103B580043740023027443828182C3820022114687
:103B6800FFF7EEBD30B585B0002415460823029353
:103B780001910394009423462246294600F0A6F9B1
:103B8800204605B030BD30B590F81D5385B0002DE6
:103B98001C469DF82030029218BF0023039301238E
:103BA8000093002301911A46214600F08FF9002066
:103BB80005B030BD30B585B000241D460292012203
:103BC8000191039400922346294600F07FF920468C
:103BD80005B030BD30B590F81D5385B0002D1C469A
:103BE8009DF82030029218BF00230393012301910E
:103BF800009300220223214600F068F9002005B056
:103C080030BD30B585B01D460024029201220191D5
:103C1800039400920223294600F058F9204605B083
:103C280030BD1FB5BDF8204002949DF81C4001949A
:103C38009DF81840009400F023F9002004B010BD4E
:103C480008B500F035F9002008BD30B5002300F5AF
:103C5800607454F8045B2D04DAB207D4E03341F4FD
:103C6800004140F8231092B2D0B230BD01330B2B83
:103C7800EFD14FF6FF72F7E70A299FBF00EB8100EB
:103C8800D0F88033C3F30E03C0F8803300207047A8
:103C980004290AD0052904D0022905D1044B19703A
:103CA80070470322024B1A7070470122FAE700BFDF
:103CB8005005002008B501220B490C48FFF75EFBB0
:103CC80008B1FCF7A3FD0A490848FFF76EFB08B1E5
:103CD800FCF79CFD0548FFF79BFB18B1BDE80840C1
:103CE800FCF794BD08BD00BF993C000840070020C0
:103CF800080000200148FFF795BB00BF40070020DF
:103D080030B5044689B01422002103A800F096FBC0
:103D18002368B3F1A04F35D11B4C1C4800250195F1
:103D2800236B43F001032363236B03F00103019327
:103D3800019B03A94FF400730393FCF7CBFF4FF4E7
:103D4800E05303930223049303A90A230F4807931C
:103D580005950695FCF7BEFF636B43F0800363632C
:103D68000295636C43F480436364636C03F480439B
:103D7800029343202A462946029BFCF769FF432009
:103D8800FCF79AFF09B030BD00380240000002403D
:103D9800D0F8C002FFF78EBCD0F8C002FFF7A0BC75
:103DA800D0F8C002FFF7B0BC7047D0F8C002FFF7E8
:103DB8008FBCD0F8C002FFF78FBC000010B590F898
:103DC800C033012B04461BD10E48C4F8C4034FF07E
:103DD800A042026008228260C36002220023C0F869
:103DE800C04203618261C361FDF7A3F808B1FCF723
:103DF8000DFD0448FDF79CFC01462046FFF757FCE3
:103E0800002010BD0C0B002008B5D0F8C403FDF746
:103E180059FC03289ABF024B185C022008BD00BF5A
:103E2800EB46000808B5D0F8C403FDF761FC032889
:103E38009ABF024B185C022008BD00BFEB46000881
:103E480008B5D0F8C403FDF776FC02289ABF024BE8
:103E5800185C012008BD00BFE846000808B5D0F886
:103E6800C403FDF757FC03289ABF024B185C0220D5
:103E780008BD00BFEB460008D0F8C403FDF753BCEB
:103E88001FB5BDF8204002949DF81C4001949DF890
:103E980018400094D0F8C403FDF701F803289ABF2E
:103EA800024B185C022004B010BD00BFEB460008AE
:103EB80008B5D0F8C403FDF72AF803289ABF024BC7
:103EC800185C022008BD00BFEB4600081FB59DF82E
:103ED80024400394BDF820400294079C01949DF867
:103EE80018400094D0F8C403FDF76EF803289ABF71
:103EF800024B185C022004B010BD00BFEB4600085E
:103F0800D0F8C403FDF709BC08B590F8C033012BFD
:103F180002D1084600F016F8C820FCF773FE00200E
:103F280008BDD0F8C403282303FB010191F83B30F6
:103F38001BB181F850200020704781F85120FAE722
:103F4800FCF760BEB0FA80F2520901210148FCF783
:103F5800A1BF00BF00080240DFF834D0002103E011
:103F68000C4B5B58435004310B480C4B42189A4297
:103F7800F6D30B4A02E0002342F8043B094B9A426D
:103F8800F9D3FCF7EDFD00F017F8FCF7FBFA7047E2
:103F98000000022000470008000000202C05002037
:103FA8002C050020E00D0020FEE70000014B1868FA
:103FB800704700BF2800002070B50D4E0D4CA41BA3
:103FC800A4100025A54209D10B4E0C4C00F06EFB45
:103FD800A41BA4100025A54205D170BD56F82530B4
:103FE80098470135EEE756F8253098470135F2E74E
:103FF800F8460008F8460008F8460008FC4600089D
:10400800024B0146186800F00BB800BF28000020DA
:10401800024B0146186800F08BBA00BF2800002048
:104028002DE9F74F01F10B04162C814607D934F01E
:10403800070405D50C23C9F80030002631E1102407
:104048008C42F7D3484600F001FAB4F5FC7F9C4D4A
:1040580036D204F108022A44A2F1080156688E42B9
:104068004FEAD40302D1D668B24210D07368F2681E
:10407800B16823F00303CA60334491605A6842F080
:1040880001025A60484600F0E7F9083609E10233B0
:104098008C4A2E69964211466DD0706820F0030054
:1040A800071B0F2F47DD331944F0010474606B615F
:1040B8002B61DA609A6047F001025A603750E1E7F5
:1040C800630A2AD0042B12D8A30938335A1C05EBEB
:1040D800C202A2F108005668864206D0726822F031
:1040E8000302111B0F291CDD013B0133D0E7142B00
:1040F80001D85B33EAE7542B02D8230B6E33E5E78C
:10410800B3F5AA7F02D8E30B7733DFE740F25452C6
:10411800934204D8A30C7C33D8E73F23D6E77E2309
:10412800D4E70029F16804DBB368D9608B60B31861
:10413800A4E70E46D0E7002F6A612A6105DB304408
:10414800436843F0010343609CE7B0F5007F44D225
:10415800C0088710012202FA07F76A6801303A435B
:104168006A6005EBC00255F83070B760083AF26033
:1041780045F83060FE6001209A1000FA02F2686883
:10418800824200F2A180024206D123F003035200CA
:10419800024203F10403FAD005EBC30CE0469E4645
:1041A800D8F80C60464553D10EF1010E1EF0030FEE
:1041B80008F10808F4D1980779D16B6823EA02035B
:1041C8006B606868520082427ED8002A7CD07346B1
:1041D8000242E1D104335200FAE7420A042A15D810
:1041E80082093832571C05EBC20E55F83770BE45A8
:1041F80026D10120921000FA02F268681043686024
:10420800C6F80CE0B760CEF80860B3E7142A01D806
:104218005B32E7E7542A02D8020B6E32E2E7B2F5C6
:10422800AA7F02D8C20B7732DCE740F25457BA4271
:104238009ABF820C7C327E22D4E7BF68BE4504D088
:104248007A6822F003029042F7D3D7F80CE0D7E758
:104258007068F76820F00300A0EB040ABAF10F0FAA
:1042680010DDB268331944F001047460D760BA6095
:104278004AF001026B612B61D96099605A6046F877
:1042880000A0FFE6BAF1000F0FDB3044436843F0AB
:104298000103436056F8083F4846DF60BB6000F002
:1042A800DBF8304603B0BDE8F08F3E467AE75CF8AD
:1042B8000809844503F1FF333FF47DAF81E700BF70
:1042C8001C01002024010020D5F808B0DBF80460A8
:1042D80026F00306B44203D8331B0F2B00F3968055
:1042E8004F4A17684F4A1168103701310BEB060324
:1042F800274405D04C4901390F44013149420F4048
:10430800394648460192009300F0ACF8B0F1FF3FFF
:10431800804656D0009B019A834201D9AB4550D1C3
:1043280042480168434507EB010EC0F800E04049E8
:10433800824613D10B4211D1AB683E4446F00106C8
:104348005E603C4ADAF8003011688B4288BF13601F
:10435800394A11688B4288BF136032E01068013017
:104368001BBFA8EB03037344C2F80080CAF80030EF
:1043780018F007001CBFC0F1080080442A4B4744CE
:1043880018440F40C71B3946484600F06BF8431CD9
:1043980008BF4046DAF80030C5F8088008BF002793
:1043A800A0EB08003B44074447F00107AB45CAF8B7
:1043B8000030C8F80470C4D00F2E10D80123C8F8F4
:1043C8000430AB685A6822F003029442A2EB04035B
:1043D80001D80F2B1ADC484600F03EF82DE6DBF832
:1043E80004300C3E26F0070603F001033343CBF8F4
:1043F80004300BEB060305220F2E5A609A60A0D9F1
:104408000BF10801484600F093F89AE7AE6844F0CB
:104418000102344443F001037260AC60636031E62A
:104428008405002024050020800000005405002099
:104438007F0000007C050020800500200244034620
:10444800934200D1704703F8011BF9E7014800F0D7
:104458002BB900BFD40D0020014800F026B900BFD9
:10446800D40D002038B5064C0023054608462360C5
:10447800FCF75CFB431C02D1236803B12B6038BDF9
:10448800DC0D00202DE9F843254FDFF8A080894690
:104498000646FFF7DBFFBB685D68A8F1110425F04D
:1044A8000305A4EB09042C44B4FBF8F4013C08FB15
:1044B80004F4444505DA3046FFF7CEFF0020BDE896
:1044C800F88300213046FFF7CDFFBB682B449842A4
:1044D800F1D161423046FFF7C5FF013010D100210C
:1044E8003046FFF7BFFFBA68831A0F2BE3DD0D498B
:1044F8000968401A0C4943F0010308605360DAE781
:10450800BB68094A2D1B45F001055D6013683046FC
:104518001C1B1460FFF7A0FF0120BDE8F88300BF53
:104528001C01002024050020540500208000000004
:104538002DE9F04104468846002900F0AB80FFF7DA
:1045480085FF58F8042C544D22F00100A8F1080307
:104558001F18A9687E688F4226F0030602F0010240
:104568001BD130443AB958F8082C9B1A1044996862
:10457800DA68CA60916040F001025A60AB60474B4C
:104588001B68984204D3464B20461968FFF77AFF08
:104598002046BDE8F041FFF75FBF7E60002A39D1B1
:1045A80058F8081C5B1A0844996805F1080E71450B
:1045B80032D0D3F80CE0C1F80CE0CEF80810B919E5
:1045C8004968C9070AD43044B9683ABB354EB14284
:1045D80024D16B612B610122D960996040F00101FF
:1045E80059601850002AD3D1B0F5007F1AD2C008FC
:1045F800811001228A40696801300A436A6005EB2C
:10460800C00255F830109960083ADA6045F8303041
:10461800CB60BDE70022D2E70122D0E7FE68CE607A
:10462800B160DBE7420A042A13D882093832511CE8
:1046380005EBC20655F831108E4224D101209210A4
:1046480000FA02F2686802436A60DE609960B3604B
:10465800DEE7142A01D85B32E9E7542A02D8020BB4
:104668006E32E4E7B2F5AA7F02D8C20B7732DEE7F2
:1046780040F254518A429ABF820C7C327E22D6E79D
:1046880089688E4204D04A6822F003029042F7D328
:10469800CE68DAE7BDE8F0811C010020280500207B
:1046A800840500202401002070477047F8B500BF3A
:1046B800F8BC08BC9E467047F8B500BFF8BC08BCFB
:0446C8009E46704753
:1046CC0000000000000000000102030406070809B6
:1046DC0000000000010203044344430000010200F7
:0446EC0002010200C5
:0846F00008BBFF7F0100000080
:0446F800AD01000808
:0446FC008901000828
:104700000024F40001000000E4460008020000005C
:104710006B3000080930000895310008CF310008DF
:1047200005300008000000002C0000200000000000
:104730000000000000000000000000000000000079
:104740000000000000000000000000000000000069
:104750000000000000000000000000000000000059
:104760000000000000000000000000000000000049
:104770000000000000000000000000000000000039
:104780000000000000000000000000000000000029
:104790000000000000000000000000000000000019
:1047A0000000000000000000000000000000000009
:1047B00000000000000000000000000000000000F9
:1047C00000000000000000000000000000000000E9
:1047D00000000000000000000000000000000000D9
:1047E00000000000000000000000000000000000C9
:1047F00000000000000000000000000000000000B9
:1048000000000000000000000000000000000000A8
:104810000000000000000000000000000000000098
:10482000000000001C0100201C01002024010020C9
:10483000240100202C0100202C0100203401002044
:10484000340100203C0100203C01002044010020F4
:10485000440100204C0100204C01002054010020A4
:10486000540100205C0100205C0100206401002054
:10487000640100206C0100206C0100207401002004
:10488000740100207C0100207C01002084010020B4
:10489000840100208C0100208C0100209401002064
:1048A000940100209C0100209C010020A401002014
:1048B000A4010020AC010020AC010020B4010020C4
:1048C000B4010020BC010020BC010020C401002074
:1048D000C4010020CC010020CC010020D401002024
:1048E000D4010020DC010020DC010020E4010020D4
:1048F000E4010020EC010020EC010020F401002084
:10490000F4010020FC010020FC0100200402002032
:10491000040200200C0200200C02002014020020DF
:10492000140200201C0200201C020020240200208F
:10493000240200202C0200202C020020340200203F
:10494000340200203C0200203C02002044020020EF
:10495000440200204C0200204C020020540200209F
:10496000540200205C0200205C020020640200204F
:10497000640200206C0200206C02002074020020FF
:10498000740200207C0200207C02002084020020AF
:10499000840200208C0200208C020020940200205F
:1049A000940200209C0200209C020020A40200200F
:1049B000A4020020AC020020AC020020B4020020BF
:1049C000B4020020BC020020BC020020C40200206F
:1049D000C4020020CC020020CC020020D40200201F
:1049E000D4020020DC020020DC020020E4020020CF
:1049F000E4020020EC020020EC020020F40200207F
:104A0000F4020020FC020020FC020020040300202D
:104A1000040300200C0300200C03002014030020DA
:104A2000140300201C0300201C030020240300208A
:104A3000240300202C0300202C030020340300203A
:104A4000340300203C0300203C03002044030020EA
:104A5000440300204C0300204C030020540300209A
:104A6000540300205C0300205C030020640300204A
:104A7000640300206C0300206C03002074030020FA
:104A8000740300207C0300207C03002084030020AA
:104A9000840300208C0300208C030020940300205A
:104AA000940300209C0300209C030020A40300200A
:104AB000A4030020AC030020AC030020B4030020BA
:104AC000B4030020BC030020BC030020C40300206A
:104AD000C4030020CC030020CC030020D40300201A
:104AE000D4030020DC030020DC030020E4030020CA
:104AF000E4030020EC030020EC030020F40300207A
:104B0000F4030020FC030020FC0300200404002028
:104B1000040400200C0400200C04002014040020D5
:104B2000140400201C0400201C0400202404002085
:104B3000240400202C0400202C0400203404002035
:104B4000340400203C0400203C04002044040020E5
:104B5000440400204C0400204C0400205404002095
:104B6000540400205C0400205C0400206404002045
:104B7000640400206C0400206C04002074040020F5
:104B8000740400207C0400207C04002084040020A5
:104B9000840400208C0400208C0400209404002055
:104BA000940400209C0400209C040020A404002005
:104BB000A4040020AC040020AC040020B4040020B5
:104BC000B4040020BC040020BC040020C404002065
:104BD000C4040020CC040020CC040020D404002015
:104BE000D4040020DC040020DC040020E4040020C5
:104BF000E4040020EC040020EC040020F404002075
:104C0000F4040020FC040020FC0400200405002023
:104C1000040500200C0500200C05002014050020D0
:0C4C200014050020FFFFFFFF0000020051
:0400000508003F614F
:00000001FF
